:020000040000FA
:100000000C9463000C948B000C948B000C94B6063B
:100010000C94B6060C94B6060C948B000C948B00D2
:100020000C948B000C948B000C948B000C948B0024
:100030000C948B000C948B000C948B000C948B0014
:100040000C946C060C948B000C948B000C948B001D
:100050000C948B000C948B000C948B000C948B00F4
:100060000C948B000C948B000000000023002600F1
:10007000290000000000240027002A0000000000E2
:10008000250028002B0004040404040404040202D4
:100090000202020203030303030301020408102007
:1000A0004080010204081020010204081020000012
:1000B0000008000201000003040700000000000027
:1000C0000000920B080C11241FBECFEFD8E0DEBF5A
:1000D000CDBF11E0A0E0B1E0EAE7FEE102C005908B
:1000E0000D92AE35B107D9F721E0AEE5B1E001C020
:1000F0001D92AB3DB207E1F710E0C2E6D0E004C0CC
:100100002197FE010E942F0DC136D107C9F70E9429
:100110007A070C94300F0C940000FC012481358187
:100120006217730720F480819181009729F410925F
:10013000A30183EA91E00895860F971F08958F9297
:100140009F92AF92BF92CF92DF92EF92FF920F9366
:100150001F93CF93DF93CDB7DEB7A8970FB6F89470
:10016000DEBF0FBECDBF5C01062F8091CC01909108
:10017000CD01DC01ED91FC910084F185E02D099524
:10018000892BB9F4FE0131966F0110E0F12CE12CBE
:100190004F010E151F05C9F0B701C5010E948D0062
:1001A000FC018081D6018D936D01BFEFEB1AFB0A34
:1001B000F0CF8091CC019091CD01DC01ED91FC91CB
:1001C0000284F385E02D0995D0CF8091CC019091E8
:1001D000CD01DC01ED91FC910280F381E02DA801BD
:1001E000B4010995A8960FB6F894DEBF0FBECDBF37
:1001F000DF91CF911F910F91FF90EF90DF90CF9003
:10020000BF90AF909F908F9008950895AF92BF9246
:10021000CF92DF92EF92FF920F931F93CF93DF93D2
:100220006C017B018B01040F151FEB015E01AE1801
:10023000BF08C017D10759F06991D601ED91FC9123
:100240000190F081E02DC6010995892B79F7C50150
:10025000DF91CF911F910F91FF90EF90DF90CF90A2
:10026000BF90AF900895CF93DF9390E0FC01E656E6
:10027000FF4F24918A579F4FFC0184918823D1F02E
:1002800090E0880F991FFC01EE58FF4FA591B491A3
:10029000FC01E458FF4FC591D49161110EC09FB786
:1002A000F8948C91E22FE0958E238C932881E223A1
:1002B000E8839FBFDF91CF9108958FB7F894EC91B9
:1002C000E22BEC938FBFF6CF806480937C0080910B
:1002D0007A00806480937A0080917A0086FDFCCF5A
:1002E000809178009091790008953FB7F8948091BB
:1002F0009F019091A001A091A101B091A20126B50A
:10030000A89B05C02F3F19F00196A11DB11D3FBF4D
:10031000BA2FA92F982F8827BC01CD01620F711D1C
:10032000811D911D42E0660F771F881F991F4A9516
:10033000D1F708958F929F92AF92BF92CF92DF92A2
:10034000EF92FF926B017C010E9475014B015C01F1
:10035000C114D104E104F104B9F00E9475016819D7
:1003600079098A099B09683E73408105910580F3EC
:1003700021E0C21AD108E108F10888EE880E83E076
:10038000981EA11CB11CE4CFFF90EF90DF90CF909E
:10039000BF90AF909F908F9008952091A6013091CB
:1003A000A7012817390771F49091A4018091A50144
:1003B000981741F0E091A401F0E0E25AFE4F8081ED
:1003C00090E008958FEF9FEF08950895EF92FF92C8
:1003D0000F931F93CF93DF93DC015C96ED90FC901D
:1003E0005D97E114F10479F481E090E013969C9319
:1003F0008E93129790E080E0DF91CF911F910F9143
:10040000FF90EF9008955196ED91FC915297509680
:100410008C915097982F90950FB75E962C915E9780
:10042000122F127021FD6095F8942081112319F18B
:10043000282B2083E7012197F1F728E0462F50E091
:10044000308160FF1AC0382B3083E7012197F1F724
:10045000BA0175956795215089F7112381F0808144
:10046000892380830FBF5C968D919C910197F1F752
:1004700081E090E0C1CF2923DCCF3923E5CF908103
:10048000892BEFCF2091A6013091A70128173907BA
:1004900071F48091A5012091A40190E0805C9F4FB0
:1004A000821B910960E470E00E940B0D089590E0BA
:1004B00080E008952091A6013091A70128173907FF
:1004C000B9F49091A4018091A501981789F0E09169
:1004D000A401F0E0E25AFE4F80812091A40130E0B7
:1004E0002F5F3F4F2F7333272093A40190E008958F
:1004F0008FEF9FEF089590E080E00895CF93DF9312
:10050000EC0188819981009711F00E94D10D198228
:1005100018821D821C821B821A82DF91CF9108955E
:10052000FC0180819181009711F00C94D10D089508
:100530000F931F93CF93DF938C01EB01FC0180811C
:1005400091810097E1F06881798161157105A9F0C9
:10055000428153812C813D814217530770F00E94E4
:10056000290F8C819D81F801958384831D821C82D3
:10057000DF91CF911F910F9108950E94D10D888135
:100580009981F801918380838A819B8193838283FF
:100590008C819D8195838483198218821B821A82A3
:1005A000E5CFFC0124813581232B39F421E0FB01C7
:1005B0008081882349F020E007C0808191810E94DA
:1005C000200F21E0892BB9F7822F08950F931F93F5
:1005D000CF93DF93EC0188819981009759F02A81AC
:1005E0003B812617370730F081E0DF91CF911F91D3
:1005F0000F9108958B016F5F7F4F0E945A0E0097F5
:1006000059F0998388831B830A832C813D81232B96
:1006100059F7FC011082E8CF80E0E7CFEF92FF921C
:100620000F931F93CF93DF936115710541F480E021
:10063000DF91CF911F910F91FF90EF900895411599
:100640005105B1F07B01EC010C811D81040F151FD8
:10065000B8010E94E602882351F3288139818C81F8
:100660009D81B701820F931F0E94290F1D830C8368
:1006700081E0DECFFC0101900020E9F73197AF0166
:10068000481B590BBC0180ED91E00C940E03EF92D6
:10069000FF920F931F93CF93DF93EC017B018A01AD
:1006A000BA010E94E60281110BC0CE010E947E02B7
:1006B000CE01DF91CF911F910F91FF90EF900895A0
:1006C0001D830C83B701888199810E94290FF0CF87
:1006D000FB0101900020E9F73197AF01461B570B52
:1006E0000C9447030F931F93CF93DF93CDB7DEB7DF
:1006F00062970FB6F894DEBF0FBECDBF8C01CB0161
:10070000F8011182108213821282158214824AE04B
:10071000BE016F5F7F4F0E94280CBE016F5F7F4F4D
:10072000C8010E94680362960FB6F894DEBF0FBE40
:10073000CDBFDF91CF911F910F9108950F931F931C
:10074000CF93DF93CDB7DEB761970FB6F894DEBFD6
:100750000FBECDBF8C01CB01F80111821082138234
:100760001282158214824AE0BE016F5F7F4F0E94A1
:10077000330CBE016F5F7F4FC8010E946803619612
:100780000FB6F894DEBF0FBECDBFDF91CF911F91A2
:100790000F910895CF93DF93EC01FB018617970724
:1007A00049F0608171816115710541F04481558185
:1007B0000E944703CE01DF91CF9108950E947E02EF
:1007C000F9CFFC01118210821382128215821482E9
:1007D0000C94CA03FC0111821082138212821582CA
:1007E0001482FB0101900020E9F73197AF01461B0D
:1007F000570B0C9447032F923F924F925F926F9248
:100800007F928F929F92AF92BF92CF92DF92EF92A0
:10081000FF920F931F93CF93DF93CDB7DEB762970D
:100820000FB6F894DEBF0FBECDBF4C01F62E64E3C9
:1008300071E08E010F5F1F4F6801C8010E94EA033B
:100840002F2D30E03A8B298B2FB7F8948091C80177
:100850009091C901A091CA01B091CB012FBF8C0129
:100860009D0140E050E0BA0189871A87AB873C8739
:100870004D875E876F87788B29883A88712C612C29
:1008800026018091CC019091CD01DC01ED91FC918C
:100890000084F185E02D0995892BD9F08091CC0158
:1008A0009091CD01DC01ED91FC910284F385E02D66
:1008B00009958F83188641E050E0BE01695F7F4F44
:1008C000C2010E940E03B1E02B1A3108EFEF6E1A3D
:1008D0007E0AB30161507109C2010E948D00DC01E2
:1008E0008C918A3009F468C08FB7F8944091C801A0
:1008F0005091C9016091CA017091CB018FBF9A01DB
:10090000AB0160E070E080E090E0A984BA84CB8421
:10091000DC84ED84FE840F8518890E94260D283E14
:10092000334041055105610571058105910521F1AE
:100930001CF168E171E0C4010E94EA03CE01019656
:100940000E949002C40162960FB6F894DEBF0FBEFB
:10095000CDBFDF91CF911F910F91FF90EF90DF906E
:10096000CF90BF90AF909F908F907F906F905F904F
:100970004F903F902F9008952114310409F081CFBA
:1009800069897A89CE0101960E948D00DC011C9252
:1009900089819A81F401918380838B819C819383E7
:1009A00082838D819E81958384831A8219821C8221
:1009B0001B821E821D82C2CFB30162507109C20127
:1009C0000E948D00FC0180818D3009F08DCFD8CF41
:1009D00064E371E00C94EA03EF92FF920F931F938C
:1009E000CF93DF93EC017B018A010E94E80464E36A
:1009F00071E080ED91E00E9468038EE191E00E9439
:100A00003A0361E271E0C7010E94D10281110DC079
:100A100083E291E00E943A03F701448155816081AD
:100A2000718180ED91E00E940E0361E271E0C801E6
:100A30000E94D10281110DC085E291E00E943A032B
:100A4000F801448155816081718180ED91E00E94BF
:100A50000E0382E391E00E943A0360ED71E0CE0163
:100A60000E94CA038091D4018E83CE01DF91CF9181
:100A70001F910F91FF90EF9008950F931F93CF93C5
:100A8000DF93CDB7DEB76A970FB6F894DEBF0FBE1F
:100A9000CDBF2091CE013091CF0110E02130310542
:100AA00009F058C08C01CE0108960E94E804B801F4
:100AB000CE010F960E94720367E271E0CE01459667
:100AC0000E94EA03AE01415F5F4FBE016B5E7F4F44
:100AD000CE0101960E94EC04BE016F5F7F4FCE01F4
:100AE00008960E9498028F818E87CE0101960E94FF
:100AF0009002CE0145960E949002CE010F960E9470
:100B000090021E85BE01685F7F4FCE0101960E9454
:100B1000E103612FCE0101960E949F00CE01019654
:100B20000E94900264E0CE0101960E94FB0360E304
:100B300071E0CE0101960E94D102082FCE010196EC
:100B40000E94900211E0011101C010E0CE01089650
:100B50000E949002812F6A960FB6F894DEBF0FBEF6
:100B6000CDBFDF91CF911F910F910895CF92DF926A
:100B7000EF92FF920F931F93CF93DF93CDB7DEB722
:100B80006A970FB6F894DEBF0FBECDBFCE010896B0
:100B90000E94E80465E371E0CE0145960E94EA03F5
:100BA00067E371E0CE010F960E94EA03AE014B5E4F
:100BB0005F4FBE01615F7F4FCE0101960E94EC0442
:100BC000BE016F5F7F4FCE0108960E9498028F8111
:100BD0008E87CE0101960E949002CE010F960E9450
:100BE0009002CE0145960E9490021E85BE01685F6C
:100BF0007F4FCE0101960E94E103612FCE01019645
:100C00000E949F00CE0101960E94900266E0CE01F4
:100C10000F960E94FB03BE01615F7F4FCE010196DC
:100C20000E94E103F12C0F2D10E08D819E810817A9
:100C30001907F8F010E000E0D12CC12C8AE0E82E72
:100C40000F1568F5B801CE0101960E948D00EC9C4D
:100C50009001ED9C300D11246901F0E3CF1AD10809
:100C6000FC018081C80ED11C87FDDA940F5F1F4FF5
:100C7000E7CFB801CE0101960E948D00FC01808172
:100C80008D30C1F2B8016F5F7F4FCE0101960E9497
:100C90008D00FC0180818A3069F2F394C4CFCE01CB
:100CA00001960E949002CE010F960E949002CE0102
:100CB00008960E949002C60199276A960FB6F8948A
:100CC000DEBF0FBECDBFDF91CF911F910F91FF907F
:100CD000EF90DF90CF9008951F920F920FB60F9272
:100CE00011242F933F938F939F93AF93BF93809142
:100CF000C8019091C901A091CA01B091CB01309176
:100D00009E0123E0230F2D3758F50196A11DB11D3B
:100D100020939E018093C8019093C901A093CA01BA
:100D2000B093CB0180919F019091A001A091A1016E
:100D3000B091A2010196A11DB11D80939F019093D6
:100D4000A001A093A101B093A201BF91AF919F9187
:100D50008F913F912F910F900FBE0F901F9018957C
:100D600026E8230F0296A11DB11DD2CF1F920F922C
:100D70000FB60F9211242F933F934F935F936F936E
:100D80007F938F939F93AF93BF93EF93FF93E091E4
:100D9000A601F091A701309749F0A685B785858512
:100DA000968D91FF14C09C918923A1F4FF91EF913E
:100DB000BF91AF919F918F917F916F915F914F9173
:100DC0003F912F910F900FBE0F901F9018959C91FF
:100DD000892361F7A389B4899C91858980958923AA
:100DE0008C93868997890197F1F7608D718DA6851F
:100DF000B785558538E020E0CB010197F1F7822FC8
:100E000090E095958795282F4C91452309F020680F
:100E1000315091F7868D81FD20958091A50190E05C
:100E200001968F7399273091A401381799F0A091FA
:100E3000A501B0E0A25ABE4F2C938093A501828DEC
:100E4000938D0197F1F7A389B4898C919589892BAA
:100E50008C93ACCF868D8160868FF1CF90E0FC01C2
:100E6000E255FF4F2491FC01E656FF4F3491FC01FF
:100E7000EA57FF4FE491EE23C9F0222339F02330E3
:100E800001F1A8F4213019F1223029F1F0E0EE0F40
:100E9000FF1FE458FF4FA591B4918FB7F894EC91E0
:100EA000611126C030953E233C938FBF08952730B3
:100EB000A9F02830C9F0243049F7809180008F7D57
:100EC00003C0809180008F7780938000DFCF84B54E
:100ED0008F7784BDDBCF84B58F7DFBCF8091B00051
:100EE0008F778093B000D2CF8091B0008F7DF9CF03
:100EF0003E2BDACFCF93DF93CDB7DEB7A2970FB6F5
:100F0000F894DEBF0FBECDBF789484B5826084BDF7
:100F100084B5816084BD85B5826085BD85B58160FD
:100F200085BD80916E00816080936E00109281007B
:100F30008091810082608093810080918100816036
:100F400080938100809180008160809380008091F7
:100F5000B10084608093B1008091B0008160809383
:100F6000B00080917A00846080937A0080917A004A
:100F7000826080937A0080917A00816080937A0009
:100F800080917A00806880937A001092C10061E0BD
:100F90008DE00E9433011092C3011092C2011092A1
:100FA000C1011092C0011092BF011092BE018FE1E9
:100FB00090E09093C5018093C4019091B401963163
:100FC00008F047C021E030E03093BF012093BE011C
:100FD0002DE130E03093C1012093C0012DE030E0DD
:100FE0003093C3012093C2012091680084E09830BF
:100FF00048F031E09E3008F430E081E001C0880F15
:101000003A95EAF7822B809368002DE630E098301D
:1010100050F02BE630E09E3030F02CE630E0963198
:1010200010F030E020E03093BC012093BB01292F69
:1010300030E0983008F0D1C181E001C0880F9A9566
:10104000EAF78093BD018091C4019091C501019799
:10105000F1F78091C2019091C301892B49F1E09190
:10106000A601F091A70121E0E83AF20709F13097D3
:1010700039F0A389B4899C918589809589238C93C3
:101080008091C6018E7F8093C6011092A5011092B7
:10109000A40188EA91E09093A7018093A601E091D2
:1010A000BB01F091BC0180819091BD01892B8083AF
:1010B00058EAE52E51E0F52ECE010A960E94E8048A
:1010C000F092CD01E092CC0161E271E0CE01479651
:1010D0000E94EA0361E271E0CE0141960E94EA03B8
:1010E000AE01495E5F4FBE016F5E7F4FCE0101963C
:1010F0000E94EC04BE016F5F7F4FCE010A960E94F2
:1011000098028F81888BCE0101960E949002CE01B9
:1011100041960E949002CE0147960E949002188943
:10112000BE01665F7F4FCE0101960E94E103612FF1
:10113000CE0101960E949F00CE0101960E9490026E
:1011400064E0CE0101960E94FB0360E371E0CE01F2
:1011500001960E94D102182FCE0101960E949002A2
:10116000CE010A960E949002112309F4A5CFCE0168
:101170000A960E94E804188E1F8A1A8E198E1C8EF9
:101180001B8E4AE0BE016F5F7F4F8EE190E00E94B0
:10119000330CBE016F5F7F4FCE0147960E946803FC
:1011A0006DE371E0CE0141960E94EA03AE01495E13
:1011B0005F4FBE016F5E7F4FCE0101960E94EC042F
:1011C000BE016F5F7F4FCE010A960E9498028F8109
:1011D000888BCE0101960E949002CE0141960E941A
:1011E0009002CE0147960E9490021889BE01665F68
:1011F0007F4FCE0101960E94E103612FCE0101963F
:101200000E949F00CE0101960E94900264E0CE01F0
:1012100001960E94FB03CE0101960E949002CE012E
:101220000A960E949002CE010A960E94E80461E0AC
:1012300070E0CE0147960E94720361E471E0CE0136
:1012400041960E94EA03AE01495E5F4FBE016F5EA8
:101250007F4FCE0101960E94EC04BE016F5F7F4F6D
:10126000CE010A960E9498028F81888BCE0101964A
:101270000E949002CE0141960E949002CE014796B4
:101280000E94900281E090E09093CF018093CE0184
:101290001889BE01665F7F4FCE0101960E94E1036F
:1012A000612FCE0101960E949F00CE0101960E94FF
:1012B00090021092D60164E0CE0101960E94FB03D9
:1012C00060E371E0CE0101960E94D102182FCE0199
:1012D00001960E949002112331F06CED75E080E0E0
:1012E00090E00E949A01CE010A960E949002CE01DF
:1012F0000A960E94E8046AE471E0CE0147960E94D3
:10130000EA036DE471E0CE0141960E94EA03AE016A
:10131000495E5F4FBE016F5E7F4FCE0101960E9416
:10132000EC04BE016F5F7F4FCE010A960E949802C7
:101330008F81888BCE0101960E949002CE0141964A
:101340000E949002CE0147960E9490028091D601A1
:101350008130E9F081E08093D6011889BE01665F93
:101360007F4FCE0101960E94E103612FCE010196CD
:101370000E949F00CE0101960E94900264E0CE017F
:1013800001960E94FB03CE0101960E949002CE01BD
:101390000A960E94900280E2F82E3324339444246B
:1013A0004A9493E0592E612C712C26E0C22ED12C48
:1013B00034E6232E40E0A42E40E0B42EEE24E39445
:1013C00085B18F2585B982E00E946401009791F470
:1013D00081E090E00E943D056CC09E3040F42850B2
:1013E000310981E001C0880F2A95EAF72ACE2E50F4
:1013F0003109F7CF01978F3F914008F08DC181E00F
:1014000090E00E943D058091CE019091CF0101971F
:1014100009F04FC0CE010A960E94E80462E571E02F
:10142000CE0141960E94EA036DE471E0CE01479639
:101430000E94EA03AE014F5E5F4FBE01695E7F4FBF
:10144000CE0101960E94EC04BE016F5F7F4FCE017A
:101450000A960E9498028F81888BCE0101960E9485
:101460009002CE0147960E949002CE0141960E94C2
:1014700090021889BE01665F7F4FCE0101960E94DF
:10148000E103612FCE0101960E949F00CE010196DB
:101490000E949002E092D60164E0CE0101960E9483
:1014A000FB03CE0101960E949002CE010A960E9493
:1014B00090028091C701882309F489C083E00E94CB
:1014C0006401181619060CF082C08091CE0190912B
:1014D000CF01019709F023C1CE010A960E94E804CA
:1014E00070E060E0CE0101960E949E0367E571E026
:1014F000CE0141960E94EA034D815E8169817A8125
:10150000CE0141960E940E03811104C0CE01419686
:101510000E947E02BE016F5E7F4FCE014D960E94FB
:10152000E103CE0141960E949002CE0101960E94F5
:101530009002BE01635E7F4FCE0141960E94E1039F
:1015400069E571E0CE0147960E94EA03AE014F5E65
:101550005F4FBE01695E7F4FCE0101960E94EC0491
:10156000BE016F5F7F4FCE010A960E9498028F8165
:10157000888BCE0101960E949002CE0147960E9470
:101580009002CE0141960E9490021889BE01665FCA
:101590007F4FCE0101960E94E103612FCE0101969B
:1015A0000E949F00CE0101960E94900264E0CE014D
:1015B00001960E94FB03CE0101960E949002CE018B
:1015C0004D960E949002CE010A960E949002809150
:1015D000CE019091CF01019709F0A1C00E94B605FC
:1015E0008C0181E00E9464014C018091CE019091B8
:1015F000CF01019709F054C0CE010A960E94E80479
:101600009801D4010E941F0DA30192010E945D0C5C
:10161000B901CE0141960E949E0369E571E0CE01B9
:1016200047960E94EA03AE014F5E5F4FBE01695EBE
:101630007F4FCE0101960E94EC04BE016F5F7F4F89
:10164000CE010A960E9498028F81888BCE01019666
:101650000E949002CE0147960E949002CE014196D0
:101660000E9490021889BE01665F7F4FCE010196ED
:101670000E94E103612FCE0101960E949F00CE01DE
:1016800001960E94900264E0CE0101960E94FB0345
:10169000CE0101960E949002CE010A960E9490020D
:1016A00085B18F2585B98091CE019091CF0110E051
:1016B00000E0019719F40E94B6058C0180E00E94B9
:1016C0006401FC01C801B6010E94F70C269E90013E
:1016D000279E300D112450E040E02150310941098E
:1016E0005109DF010E94870CA30192010E945D0C49
:1016F000CA01B9016F5F7F4F8F4F9F4F0E949A01C0
:101700008091C70183258093C701A114B10409F416
:1017100057CE0E94000054CE84E090E05BCE10E0F3
:1017200000E05FCF1092AB011092AA0188EE93E027
:10173000A0E0B0E08093AC019093AD01A093AE0126
:10174000B093AF018AE091E09093A9018093A80142
:101750001092BF011092BE011092C1011092C001FF
:101760001092C3011092C2011092C5011092C401DF
:101770006091C6016E7F6D7F6093C6016695617052
:1017800081E0682783E00E942E0761E083E00E94E9
:101790003301EDE9F0E0E491E093B801E9E8F0E02D
:1017A000E491F0E0EE0FFF1FE458FF4F8591949114
:1017B0009093BA018093B90160E082E00E94330106
:1017C0008091C60181FD04C061E082E00E942E0785
:1017D00082E08093B401ECE9F0E0E491E093B5019C
:1017E000E8E8F0E0E491F0E0EE0FFF1FE859FF4F6A
:1017F000859194919093B7018093B6011092CD0199
:101800001092CC0164E371E080ED91E00C94EA0366
:1018100080ED91E00E9490028AE091E09093A9010E
:101820008093A8018091A6019091A701885A9140C8
:1018300071F4E091BB01F091BC0190818091BD01F8
:101840008095892380831092A7011092A6010895A4
:10185000BB274A3031F4992322F4BDE2909581955B
:101860009F4F0C94340CBB27FB015527AA27880FE8
:10187000991FAA1FA41710F0A41B83955051B9F704
:10188000A05DAA3308F0A95DA193009779F7B11183
:10189000B1931192CB010C944D0CDC01FC01672F2C
:1018A00071917723E1F7329704C07C916D93708337
:1018B0006291AE17BF07C8F30895052E97FB1EF47B
:1018C00000940E94740C57FD07D00E94C60C07FCC0
:1018D00003D04EF40C94740C50954095309521959E
:1018E0003F4F4F4F5F4F089590958095709561954C
:1018F0007F4F8F4F9F4F08950E94E80CA59F900D3A
:10190000B49F900DA49F800D911D11240895B7FFE1
:101910000C947C0C0E947C0C821B930B08952F92DC
:101920003F924F925F926F927F928F929F92AF926F
:10193000BF92CF92DF92EF92FF920F931F93CF93BC
:10194000DF93CDB7DEB7CA1BDB0B0FB6F894DEBF53
:101950000FBECDBF09942A88398848885F846E8479
:101960007D848C849B84AA84B984C884DF80EE80C3
:10197000FD800C811B81AA81B981CE0FD11D0FB6CC
:10198000F894DEBF0FBECDBFED010895A1E21A2E7F
:10199000AA1BBB1BFD010DC0AA1FBB1FEE1FFF1F13
:1019A000A217B307E407F50720F0A21BB30BE40B63
:1019B000F50B661F771F881F991F1A9469F76095AA
:1019C0007095809590959B01AC01BD01CF01089564
:1019D000A29FB001B39FC001A39F700D811D112470
:1019E000911DB29F700D811D1124911D0895AA1B98
:1019F000BB1B51E107C0AA1FBB1FA617B70710F0FA
:101A0000A61BB70B881F991F5A95A9F7809590952B
:101A1000BC01CD01089597FB072E16F4009407D062
:101A200077FD09D00E94F70C07FC05D03EF4909595
:101A300081959F4F0895709561957F4F08950E94FD
:101A4000E80CB7FF0895821B930B08952A193B09F0
:101A50004C095D096E097F09800B910B0895EE0F0B
:101A6000FF1F0590F491E02D09940F931F93CF93DE
:101A7000DF938230910510F482E090E0E091D9018B
:101A8000F091DA0130E020E0B0E0A0E0309799F486
:101A90002115310509F44AC0281B390B24303105C2
:101AA000D8F58A819B816115710589F1FB019383CA
:101AB0008283FE0111C04081518102811381481748
:101AC0005907E0F04817590799F4109761F01296FA
:101AD0000C93129713961C933296CF01DF91CF91FE
:101AE0001F910F9108950093D9011093DA01F4CF5B
:101AF0002115310551F04217530738F0A901DB01D8
:101B00009A01BD01DF01F801C1CFEF01F9CF909338
:101B1000DA018093D901CDCFFE01E20FF31F81934B
:101B200091932250310939832883D7CF2091D7014F
:101B30003091D801232B41F420910201309103010F
:101B40003093D8012093D7012091000130910101F9
:101B50002115310541F42DB73EB740910401509154
:101B60000501241B350BE091D701F091D801E21754
:101B7000F307A0F42E1B3F0B2817390778F0AC01B0
:101B80004E5F5F4F2417350748F04E0F5F1F50938D
:101B9000D8014093D701819391939FCFF0E0E0E08B
:101BA0009CCFCF93DF930097E9F0FC01329713822B
:101BB0001282A091D901B091DA01ED0130E020E06C
:101BC0001097A1F420813181820F931F2091D701BA
:101BD0003091D8012817390709F061C0F093D80176
:101BE000E093D701DF91CF910895EA01CE17DF0787
:101BF000E8F54A815B819E0141155105B1F7E90184
:101C0000FB83EA8349915991C40FD51FEC17FD0757
:101C100061F4808191810296840F951FE901998377
:101C20008883828193819B838A83F0E0E0E012962F
:101C30008D919C9113970097B9F52D913C91119737
:101C4000CD010296820F931F2091D7013091D801C8
:101C50002817390739F6309751F51092DA011092AA
:101C6000D901B093D801A093D701BCCFD383C2834D
:101C700040815181840F951FC817D90761F44E5FC9
:101C80005F4F88819981480F591F518340838A8112
:101C90009B81938382832115310509F0B0CFF093A6
:101CA000DA01E093D9019ECFFD01DC01C0CF1382A0
:101CB0001282D7CFB0E0A0E0E0E6FEE00C94910CF9
:101CC0008C01009751F4CB010E94350D8C01C801A5
:101CD000CDB7DEB7E0E10C94AD0CFC01E60FF71FC9
:101CE0009C0122503109E217F30708F49DC0D90185
:101CF000CD91DC911197C617D70798F0C530D10563
:101D000030F3CE0104978617970708F3C61BD70B4D
:101D10002297C193D1936D937C93CF010E94D10DF3
:101D2000D6CF5B01AC1ABD0A4C018C0E9D1EA09152
:101D3000D901B091DA01512C412CF12CE12C1097F2
:101D400031F58091D7019091D8018815990509F056
:101D50005CC04616570608F058C08091000190916B
:101D60000101009741F48DB79EB740910401509155
:101D70000501841B950BE817F90708F055C0F0938F
:101D8000D801E093D701F90171836083A0CF8D91D1
:101D90009C91119712966C90129713967C901397C2
:101DA000A815B90559F56C0142E0C40ED11CCA143E
:101DB000DB0420F1AC014A195B09DA011296159790
:101DC00080F06282738251834083D9016D937C934A
:101DD000E114F10471F0D7011396FC93EE9312977E
:101DE00076CF22968C0F9D1FF90191838083F3019A
:101DF000EFCFF093DA01E093D90169CF4816590685
:101E000008F42C017D01D3019ACFCB010E94350D3E
:101E10007C01009749F0AE01B8010E94170FC8017C
:101E20000E94D10D870153CF10E000E050CFFB019D
:101E3000DC0102C001900D9241505040D8F7089546
:101E4000FB01DC018D91019080190110D9F3990BF0
:101E50000895FB01DC0101900D920020E1F7089547
:101E600010E0C2E6D0E004C0FE010E942F0D2196D2
:101E7000C336D107C9F7F894FFCF0000DB0180001B
:101E800000000000E60106017B02E50142025A0261
:101E9000CD016572726F720041540020002B003D2D
:101EA00000504C41594D4F4445004F4B0D0A0034F2
:101EB00000515545525900564F4C0046554E43541B
:101EC000494F4E00505000504C4159004E45585417
:081ED000002D0054494D4500AE
:107E0000112484B714BE81FFF0D085E080938100F7
:107E100082E08093C00088E18093C10086E0809377
:107E2000C20080E18093C4008EE0C9D0259A86E02C
:107E300020E33CEF91E0309385002093840096BBD3
:107E4000B09BFECF1D9AA8958150A9F7CC24DD24C4
:107E500088248394B5E0AB2EA1E19A2EF3E0BF2EE7
:107E6000A2D0813461F49FD0082FAFD0023811F036
:107E7000013811F484E001C083E08DD089C08234E0
:107E800011F484E103C0853419F485E0A6D080C0E4
:107E9000853579F488D0E82EFF2485D0082F10E0AE
:107EA000102F00270E291F29000F111F8ED06801E7
:107EB0006FC0863521F484E090D080E0DECF843638
:107EC00009F040C070D06FD0082F6DD080E0C81688
:107ED00080E7D80618F4F601B7BEE895C0E0D1E017
:107EE00062D089930C17E1F7F0E0CF16F0E7DF06D8
:107EF00018F0F601B7BEE89568D007B600FCFDCFD4
:107F0000A601A0E0B1E02C9130E011968C91119780
:107F100090E0982F8827822B932B1296FA010C0160
:107F200087BEE89511244E5F5F4FF1E0A038BF0790
:107F300051F7F601A7BEE89507B600FCFDCF97BE46
:107F4000E89526C08437B1F42ED02DD0F82E2BD052
:107F50003CD0F601EF2C8F010F5F1F4F84911BD097
:107F6000EA94F801C1F70894C11CD11CFA94CF0C13
:107F7000D11C0EC0853739F428D08EE10CD085E9AC
:107F80000AD08FE07ACF813511F488E018D01DD067
:107F900080E101D065CF982F8091C00085FFFCCF94
:107FA0009093C60008958091C00087FFFCCF809118
:107FB000C00084FD01C0A8958091C6000895E0E648
:107FC000F0E098E1908380830895EDDF803219F02E
:107FD00088E0F5DFFFCF84E1DECF1F93182FE3DFCA
:107FE0001150E9F7F2DF1F91089580E0E8DFEE27F6
:047FF000FF270994CA
:027FFE00040479
:00000001FF
