:100000000C9463000C948B000C948B000C9453059F
:100010000C9453050C9453050C948B000C948B009A
:100020000C948B000C948B000C948B000C948B0024
:100030000C948B000C948B000C948B000C948B0014
:100040000C9409050C948B000C948B000C948B0081
:100050000C948B000C948B000C948B000C948B00F4
:100060000C948B000C948B000000000023002600F1
:10007000290000000000240027002A0000000000E2
:10008000250028002B0004040404040404040202D4
:100090000202020203030303030301020408102007
:1000A0004080010204081020010204081020000012
:1000B0000008000201000003040700000000000027
:1000C0000000B109270A11241FBECFEFD8E0DEBF20
:1000D000CDBF11E0A0E0B1E0E4E0FFE102C0059097
:1000E0000D92A635B107D9F721E0A6E5B1E001C030
:1000F0001D92A23DB207E1F710E0C2E6D0E004C0D5
:100100002197FE010E94740DC136D107C9F70E94E4
:1001100017060C94750F0C940000CF93DF9390E0BA
:10012000FC01E656FF4F24918A579F4FFC018491B2
:100130008823D1F090E0880F991FFC01EE58FF4F03
:10014000A591B491FC01E458FF4FC591D491611180
:100150000EC09FB7F8948C91E22FE0958E238C937C
:100160002881E223E8839FBFDF91CF9108958FB765
:10017000F894EC91E22BEC938FBFF6CF80648093E0
:100180007C0080917A00806480937A0080917A006C
:1001900086FDFCCF809178009091790008953FB75B
:1001A000F8948091BB019091BC01A091BD01B091E8
:1001B000BE0126B5A89B05C02F3F19F00196A11DD1
:1001C000B11D3FBFBA2FA92F982F8827BC01CD01A1
:1001D000620F711D811D911D42E0660F771F881F00
:1001E000991F4A95D1F708958F929F92AF92BF922F
:1001F000CF92DF92EF92FF926B017C010E94CF00C1
:100200004B015C01C114D104E104F104B9F00E9476
:10021000CF00681979098A099B09683E73408105F6
:10022000910580F321E0C21AD108E108F10888EEB7
:10023000880E83E0981EA11CB11CE4CFFF90EF90C4
:10024000DF90CF90BF90AF909F908F900895FC016A
:10025000248135816217730720F480819181009792
:1002600029F41092960186E991E00895860F971F70
:1002700008958F929F92AF92BF92CF92DF92EF92AA
:10028000FF920F931F93CF93DF93CDB7DEB7C85C78
:10029000D1090FB6F894DEBF0FBECDBF5C01062FAB
:1002A0008091C3019091C401DC01ED91FC91008427
:1002B000F185E02D0995892BB9F4FE0131966F0186
:1002C00010E0F12CE12C4F010E151F05C9F0B7010C
:1002D000C5010E942701FC018081D6018D936D012B
:1002E000BFEFEB1AFB0AF0CF8091C3019091C401DC
:1002F000DC01ED91FC910284F385E02D0995D0CFCE
:100300008091C3019091C401DC01ED91FC910280C8
:10031000F381E02DA801B4010995C853DF4F0FB652
:10032000F894DEBF0FBECDBFDF91CF911F910F912B
:10033000FF90EF90DF90CF90BF90AF909F908F9005
:1003400008950895AF92BF92CF92DF92EF92FF92FD
:100350000F931F93CF93DF936C017B018B01040FED
:10036000151FEB015E01AE18BF08C017D10759F089
:100370006991D601ED91FC910190F081E02DC601CB
:100380000995892B79F7C501DF91CF911F910F91C5
:10039000FF90EF90DF90CF90BF90AF9008952091A5
:1003A000990130919A012817390771F490919701BA
:1003B00080919801981741F0E0919701F0E0EA5A96
:1003C000FE4F808190E008958FEF9FEF089508958C
:1003D000EF92FF920F931F93CF93DF93DC015C9614
:1003E000ED90FC905D97E114F10479F481E090E0E8
:1003F00013969C938E93129790E080E0DF91CF91BB
:100400001F910F91FF90EF9008955196ED91FC91FF
:10041000529750968C915097982F90950FB75E9663
:100420002C915E97122F127021FD6095F894208117
:10043000112319F1282B2083E7012197F1F728E0F8
:10044000462F50E0308160FF1AC0382B3083E7011F
:100450002197F1F7BA0175956795215089F7112316
:1004600081F08081892380830FBF5C968D919C9160
:100470000197F1F781E090E0C1CF2923DCCF392348
:10048000E5CF9081892BEFCF2091990130919A018E
:100490002817390761F4809198012091970190E025
:1004A000805C9F4F821B91098F739927089590E07C
:1004B00080E008952091990130919A012817390719
:1004C000B9F49091970180919801981789F0E09183
:1004D0009701F0E0EA5AFE4F80812091970130E0C9
:1004E0002F5F3F4F2F7333272093970190E008959C
:1004F0008FEF9FEF089590E080E00895FC01248144
:100500003581232B39F421E0FB018081882349F0D8
:1005100020E007C0808191810E94650F21E0892B36
:10052000B9F7822F08950F931F93CF93DF938C0118
:10053000EB01FC01808191810097E1F06881798174
:1005400061157105A9F0428153812C813D814217CB
:10055000530770F00E946E0F8C819D81F801958386
:1005600084831D821C82DF91CF911F910F9108958A
:100570000E94160E88819981F801918380838A8177
:100580009B81938382838C819D819583848319824F
:1005900018821B821A82E5CFFC018081918100972D
:1005A00011F00C94160E08950F931F93CF93DF93C1
:1005B000EC0188819981009759F02A813B812617A7
:1005C000370730F081E0DF91CF911F910F910895AF
:1005D0008B016F5F7F4F0E949F0E009759F09983A8
:1005E00088831B830A832C813D81232B59F7FC01CF
:1005F0001082E8CF80E0E7CFEF92FF920F931F9336
:10060000CF93DF936115710541F480E0DF91CF91C5
:100610001F910F91FF90EF90089541155105B1F092
:100620007B01EC010C811D81040F151FB8010E9494
:10063000D402882351F3288139818C819D81B701AF
:10064000820F931F0E946E0F1D830C8381E0DECF0B
:10065000FC0101900020E9F73197AF01481B590BCD
:10066000BC0187EC91E00C94FC02EF92FF920F9397
:100670001F93CF93DF93EC017B018A01BA010E94A3
:10068000D40228813981811114C02115310519F056
:10069000C9010E94160E198218821D821C821B82BB
:1006A0001A82CE01DF91CF911F910F91FF90EF90B1
:1006B00008951D830C83B701C9010E946E0FF1CF0D
:1006C000FB0101900020E9F73197AF01461B570B62
:1006D0000C9435030F931F93CF93DF93CDB7DEB701
:1006E00062970FB6F894DEBF0FBECDBF8C01CB0171
:1006F000F8011182108213821282158214824AE05C
:10070000BE016F5F7F4F0E94470ABE016F5F7F4F40
:10071000C8010E94600362960FB6F894DEBF0FBE58
:10072000CDBFDF91CF911F910F910895CF93DF93AC
:10073000EC01FB018617970749F060817181611513
:10074000710541F0448155810E943503CE01DF914E
:10075000CF91089588819981009711F00E94160E1B
:10076000198218821D821C821B821A82EFCFFC0123
:100770001182108213821282158214820C949603C5
:10078000FC01118210821382128215821482FB01F5
:1007900001900020E9F73197AF01461B570B0C94ED
:1007A00035032F923F924F925F926F927F928F927A
:1007B0009F92AF92BF92CF92DF92EF92FF920F93F0
:1007C0001F93CF93DF93CDB7DEB760970FB6F89442
:1007D000DEBF0FBECDBF4C016FE271E08E010F5F37
:1007E0001F4F7801C8010E94C0032FB7F894809171
:1007F000BF019091C001A091C101B091C2012FBF72
:100800008C019D0140E050E0BA0189871A87AB87CF
:100810003C874D875E876F87788B712C612C84E0D5
:10082000282E312C27018091C3019091C401DC0155
:10083000ED91FC910084F185E02D0995892BD9F08B
:100840008091C3019091C401DC01ED91FC9102847F
:10085000F385E02D09958F83188641E050E0BE01B5
:10086000695F7F4FC2010E94FC02B1E02B1A310880
:10087000EFEF6E1A7E0AB30161507109C2010E9446
:100880002701DC018C918A3009F462C08FB7F8949B
:100890004091BF015091C0016091C1017091C201AE
:1008A0008FBF9A01AB0160E070E080E090E0A98426
:1008B000BA84CB84DC84ED84FE840F8518890E9481
:1008C0006B0D283E334041055105610571058105D9
:1008D000910521F11CF16CE171E0C4010E94C0039B
:1008E000CE0101960E94CC02C40160960FB6F89426
:1008F000DEBF0FBECDBFDF91CF911F910F91FF9053
:10090000EF90DF90CF90BF90AF909F908F907F90AF
:100910006F905F904F903F902F9008952114310475
:1009200009F081CF64E070E0CE0101960E942701BA
:10093000DC011C92F4011182108213821282158252
:100940001482BE016F5F7F4FC4010E949302C8CF23
:10095000B30162507109C2010E942701FC0180812C
:100960008D3009F093CFDECF6FE271E00C94C003BD
:10097000EF92FF920F931F93CF93DF93EC017B01D4
:100980008A010E94B4046FE271E087EC91E00E945A
:10099000600382E291E00E94280365E271E0C701F2
:1009A0000E947E0281110DC087E291E00E9428031F
:1009B000F701448155816081718187EC91E00E944B
:1009C000FC0265E271E0C8010E947E0281110DC047
:1009D00089E291E00E942803F801448155816081F9
:1009E000718187EC91E00E94FC028DE291E00E940F
:1009F000280367EC71E0CE010E9496038091CB0141
:100A00008E83CE01DF91CF911F910F91FF90EF90D8
:100A100008951F920F920FB60F9211242F933F93B8
:100A20008F939F93AF93BF938091BF019091C0012B
:100A3000A091C101B091C2013091BA0123E0230F0E
:100A40002D3758F50196A11DB11D2093BA01809351
:100A5000BF019093C001A093C101B093C2018091E6
:100A6000BB019091BC01A091BD01B091BE01019666
:100A7000A11DB11D8093BB019093BC01A093BD014A
:100A8000B093BE01BF91AF919F918F913F912F91F4
:100A90000F900FBE0F901F90189526E8230F029617
:100AA000A11DB11DD2CF1F920F920FB60F9211242C
:100AB0002F933F934F935F936F937F938F939F9366
:100AC000AF93BF93EF93FF93E0919901F0919A0157
:100AD000309749F0A685B7858585968D91FF14C01E
:100AE0009C918923A1F4FF91EF91BF91AF919F91C8
:100AF0008F917F916F915F914F913F912F910F90C7
:100B00000FBE0F901F9018959C91892361F7A389C0
:100B1000B4899C918589809589238C93868997894E
:100B20000197F1F7608D718DA685B785558538E001
:100B300020E0CB010197F1F7822F90E09595879502
:100B4000282F4C91452309F02068315091F7868D6C
:100B500081FD20958091980190E001968F739927EF
:100B600030919701381799F0A0919801B0E0AA5AF6
:100B7000BE4F2C9380939801828D938D0197F1F74E
:100B8000A389B4898C919589892B8C93ACCF868D60
:100B90008160868FF1CF90E0FC01E255FF4F2491F8
:100BA000FC01E656FF4F3491FC01EA57FF4FE491F8
:100BB000EE23C9F0222339F0233001F1A8F42130CB
:100BC00019F1223029F1F0E0EE0FFF1FE458FF4F3A
:100BD000A591B4918FB7F894EC91611126C030952E
:100BE0003E233C938FBF08952730A9F02830C9F0E9
:100BF000243049F7809180008F7D03C08091800070
:100C00008F7780938000DFCF84B58F7784BDDBCF73
:100C100084B58F7DFBCF8091B0008F778093B0003B
:100C2000D2CF8091B0008F7DF9CF3E2BDACFCF931A
:100C3000DF93CDB7DEB76C970FB6F894DEBF0FBE6B
:100C4000CDBF789484B5826084BD84B5816084BD55
:100C500085B5826085BD85B5816085BD80916E005A
:100C6000816080936E00109281008091810082608B
:100C700080938100809181008160809381008091C8
:100C800080008160809380008091B10084608093B7
:100C9000B1008091B00081608093B00080917A00B3
:100CA000846080937A0080917A00826080937A00D9
:100CB00080917A00816080937A0080917A008068C8
:100CC00080937A001092C10061E08DE00E948D0057
:100CD0001092B6011092B5011092B4011092B301B6
:100CE0001092B2011092B1018FE190E09093B8019F
:100CF0008093B7019091A701963108F047C021E099
:100D000030E03093B2012093B1012DE130E0309317
:100D1000B4012093B3012DE030E03093B60120936D
:100D2000B5012091680084E0983048F031E09E30B1
:100D300008F430E081E001C0880F3A95EAF7822B91
:100D4000809368002DE630E0983050F02BE630E0DC
:100D50009E3030F02CE630E0963110F030E020E0AC
:100D60003093AF012093AE01292F30E0983008F086
:100D7000EBC281E001C0880F9A95EAF78093B00139
:100D80008091B7019091B8010197F1F78091B50179
:100D90009091B601892B49F1E0919901F0919A0166
:100DA00081E0EB39F80709F1309739F0A389B4896C
:100DB0009C918589809589238C938091B9018E7F40
:100DC0008093B90110929801109297018BE991E0FC
:100DD00090939A0180939901E091AE01F091AF0157
:100DE00080819091B001892B80833BE9E32E31E033
:100DF000F32ECE010A960E94B404F092C401E09250
:100E0000C30165E271E0CE0147960E94C00365E22E
:100E100071E0CE0141960E94C003AE01495E5F4F72
:100E2000BE016F5E7F4FCE0101960E94B804BE01E5
:100E30006F5F7F4FCE010A960E9493028F81888B4D
:100E4000CE0101960E94CC02CE0141960E94CC02B6
:100E5000CE0147960E94CC021889BE01665F7F4F83
:100E6000CE0101960E94B703612FCE0101960E9428
:100E70003901CE0101960E94CC02CE0101960E945A
:100E8000D1036BE271E0CE0101960E947E02182F21
:100E9000CE0101960E94CC02CE010A960E94CC029D
:100EA000112309F4A6CFCE010A960E94B404188E2D
:100EB0001F8A1A8E198E1C8E1B8E4AE0BE016F5F30
:100EC0007F4F8EE190E00E94520ABE016F5F7F4F1C
:100ED000CE0147960E94600360E371E0CE01419627
:100EE0000E94C003AE01495E5F4FBE016F5E7F4F3F
:100EF000CE0101960E94B804BE016F5F7F4FCE0104
:100F00000A960E9493028F81888BCE0101960E94DF
:100F1000CC02CE0141960E94CC02CE0147960E949F
:100F2000CC021889BE01665F7F4FCE0101960E94F8
:100F3000B703612FCE0101960E943901CE010196BF
:100F40000E94CC02CE0101960E94D103CE010196EF
:100F50000E94CC02CE010A960E94CC02CE010A96D3
:100F60000E94B40461E070E0CE0147960E946A03DB
:100F700064E371E0CE0141960E94C003AE01495E78
:100F80005F4FBE016F5E7F4FCE0101960E94B80495
:100F9000BE016F5F7F4FCE010A960E9493028F8140
:100FA000888BCE0101960E94CC02CE0141960E9410
:100FB000CC02CE0147960E94CC0281E090E0909353
:100FC000C6018093C5011889BE01665F7F4FCE01BF
:100FD00001960E94B703612FCE0101960E9439014C
:100FE000CE0101960E94CC021092CD01CE01019655
:100FF0000E94D1036BE271E0CE0101960E947E0255
:10100000182FCE0101960E94CC02112331F06CED15
:1010100075E080E090E00E94F400CE010A960E9404
:10102000CC02CE010A960E94B4046DE371E0CE01B9
:1010300047960E94C00360E471E0CE0141960E9491
:10104000C003AE01495E5F4FBE016F5E7F4FCE01B0
:1010500001960E94B804BE016F5F7F4FCE010A96D1
:101060000E9493028F81888BCE0101960E94CC0250
:10107000CE0141960E94CC02CE0147960E94CC023E
:101080008091CD018130E1F081E08093CD0118891C
:10109000BE01665F7F4FCE0101960E94B703612FAC
:1010A000CE0101960E943901CE0101960E94CC0228
:1010B000CE0101960E94D103CE0101960E94CC027E
:1010C000CE010A960E94CC028091C5019091C60182
:1010D000019709F04CC0CE010A960E94B40463E067
:1010E00070E0CE0141960E946A0365E471E0CE0192
:1010F00047960E94C003AE014F5E5F4FBE01695E1E
:101100007F4FCE0101960E94B804BE016F5F7F4FF2
:10111000CE010A960E9493028F81888BCE010196A0
:101120000E94CC02CE0147960E94CC02CE0141968D
:101130000E94CC021889BE01665F7F4FCE010196E6
:101140000E94B703612FCE0101960E943901CE01A2
:1011500001960E94CC02CE0101960E94D103CE01DD
:1011600001960E94CC02CE010A960E94CC0290E227
:10117000392ECC24CA9423E0D22EE12CF12C00E0AD
:1011800010E085B1832585B981E00E94BE00809082
:10119000000190900101A0900201B090030128E8A5
:1011A00033E1DC010E94640DA70196010E94770BD8
:1011B000CA01B901695477478F4F9F4F0E947E0A39
:1011C00020E030E44CE156E40E94820CA501940139
:1011D0000E94B90A2B013C01A501940160E070E076
:1011E00080E89FE30E94FE0B9B01AC01C301B201AA
:1011F0000E94B90A4B015C018092000190920101AA
:10120000A0920201B092030182E00E94BE0029E098
:1012100030E0DC010E94640DA70196010E94770B6B
:101220002F5F3F4F4F4F5F4F622F70E090E080E0A5
:101230000E947E0AA50194010E94B90A0E946B0CCB
:101240004B015C0185B1832585B98091C5019091E1
:10125000C601019709F052C0CE010A960E94B4045B
:10126000C501B4010E94F40C70E0CE0141960E94C9
:101270006A036EE471E0CE0147960E94C003AE019E
:101280004F5E5F4FBE01695E7F4FCE0101960E94A7
:10129000B804BE016F5F7F4FCE010A960E94930291
:1012A0008F81888BCE0101960E94CC02CE01479699
:1012B0000E94CC02CE0141960E94CC02B888BE01A9
:1012C000665F7F4FCE0101960E94B7036B2DCE0162
:1012D00001960E943901CE0101960E94CC0281E064
:1012E0008093CD01CE0101960E94D103CE010196DB
:1012F0000E94CC02CE010A960E94CC0280E00E949D
:10130000BE002EEB30E0DC010E94640DA7019601C7
:101310000E94770B245C3F4F4F4F5F4F4427552768
:1013200060E67AEE80E090E00E94770B3695279594
:10133000B90190E080E00E94F4000115110509F464
:1013400020CF0E9400001DCF9E3040F4285031096C
:1013500081E001C0880F2A95EAF710CD2E5031099F
:10136000F7CF10929E0110929D0188EE93E0A0E0CD
:10137000B0E080939F019093A001A093A101B0934E
:10138000A2018EE091E090939C0180939B011092CA
:10139000B2011092B1011092B4011092B3011092F7
:1013A000B6011092B5011092B8011092B701609188
:1013B000B9016E7F6D7F6093B9016695617081E0C0
:1013C000682783E00E94CB0561E083E00E948D00E6
:1013D000EDE9F0E0E491E093AB01E9E8F0E0E491BD
:1013E000F0E0EE0FFF1FE458FF4F8591949190932A
:1013F000AD018093AC0160E082E00E948D0080919D
:10140000B90181FD04C061E082E00E94CB0582E069
:101410008093A701ECE9F0E0E491E093A801E8E80B
:10142000F0E0E491F0E0EE0FFF1FE859FF4F8591E7
:1014300094919093AA018093A9011092C4011092F3
:10144000C3016FE271E087EC91E00C94C00387EC7C
:1014500091E00E94CC028EE091E090939C018093F9
:101460009B018091990190919A018B59914071F45F
:10147000E091AE01F091AF0190818091B001809533
:101480008923808310929A01109299010895BB27B5
:101490004A3031F4992322F4BDE2909581959F4F13
:1014A0000C94530ABB27FB015527AA27880F991FC5
:1014B000AA1FA41710F0A41B83955051B9F7A05D83
:1014C000AA3308F0A95DA193009779F7B111B19300
:1014D0001192CB010C946C0ADC01FC01672F719115
:1014E0007723E1F7329704C07C916D93708362910A
:1014F000AE17BF07C8F30895E89409C097FB3EF400
:1015000090958095709561957F4F8F4F9F4F992350
:10151000A9F0F92F96E9BB279395F69587957795CE
:101520006795B795F111F8CFFAF4BB0F11F460FF8E
:101530001BC06F5F7F4F8F4F9F4F16C0882311F0E6
:1015400096E911C0772321F09EE8872F762F05C0FA
:10155000662371F096E8862F70E060E02AF09A9595
:10156000660F771F881FDAF7880F9695879597F98A
:1015700008950E94CC0A0C943D0B0E942F0B38F06A
:101580000E94360B20F0952311F00C94260B0C943E
:101590002C0B11240C94710B0E944E0B70F3959F31
:1015A000C1F3950F50E0551F629FF001729FBB275A
:1015B000F00DB11D639FAA27F00DB11DAA1F649FF6
:1015C0006627B00DA11D661F829F2227B00DA11DA9
:1015D000621F739FB00DA11D621F839FA00D611D2F
:1015E000221F749F3327A00D611D231F849F600D50
:1015F000211D822F762F6A2F11249F5750409AF079
:10160000F1F088234AF0EE0FFF1FBB1F661F771F04
:10161000881F91505040A9F79E3F510580F00C94CF
:10162000260B0C94710B5F3FE4F3983ED4F3869540
:1016300077956795B795F795E7959F5FC1F7FE2B6F
:10164000880F911D9695879597F9089597F99F674B
:1016500080E870E060E008959FEF80EC089500243A
:101660000A941616170618060906089500240A9407
:1016700012161306140605060895092E0394000C8D
:1016800011F4882352F0BB0F40F4BF2B11F460FF1C
:1016900004C06F5F7F4F8F4F9F4F089557FD905845
:1016A000440F551F59F05F3F71F04795880F97FB26
:1016B000991F61F09F3F79F08795089512161306E0
:1016C0001406551FF2CF4695F1DF08C0161617060F
:1016D0001806991FF1CF8695710561050894089544
:1016E000E894BB2766277727CB0197F90895052E45
:1016F00097FB1EF400940E948E0B57FD07D00E94AA
:10170000CD0B07FC03D04EF40C948E0B50954095F6
:10171000309521953F4F4F4F5F4F0895909580959D
:10172000709561957F4F8F4F9F4F08952F923F92F5
:101730004F925F926F927F928F929F92AF92BF92E1
:10174000CF92DF92EF92FF920F931F93CF93DF938D
:10175000CDB7DEB7CA1BDB0B0FB6F894DEBF0FBEEA
:10176000CDBF09942A88398848885F846E847D8437
:101770008C849B84AA84B984C884DF80EE80FD8039
:101780000C811B81AA81B981CE0FD11D0FB6F894AF
:10179000DEBF0FBECDBFED010895A1E21A2EAA1B38
:1017A000BB1BFD010DC0AA1FBB1FEE1FFF1FA21711
:1017B000B307E407F50720F0A21BB30BE40BF50B0E
:1017C000661F771F881F991F1A9469F76095709597
:1017D000809590959B01AC01BD01CF010895A29F1A
:1017E000B001B39FC001A39F700D811D1124911DF5
:1017F000B29F700D811D1124911D08955058BB2773
:10180000AA270E94160C0C943D0B0E942F0B38F057
:101810000E94360B20F039F49F3F19F426F40C9403
:101820002C0B0EF4E095E7FB0C94260BE92F0E949D
:101830004E0B58F3BA17620773078407950720F019
:1018400079F4A6F50C94700B0EF4E0950B2EBA2FDC
:10185000A02D0B01B90190010C01CA01A0011124B6
:10186000FF27591B99F0593F50F4503E68F11A1662
:10187000F040A22F232F342F4427585FF3CF4695F3
:1018800037952795A795F0405395C9F77EF41F1615
:10189000BA0B620B730B840BBAF09150A1F0FF0FDF
:1018A000BB1F661F771F881FC2F70EC0BA0F621FCB
:1018B000731F841F48F4879577956795B795F795BB
:1018C0009E3F08F0B0CF9395880F08F09927EE0F50
:1018D0009795879508950E944C0D90F09F3748F496
:1018E000911116F40C94710B60E070E080E89FE3B6
:1018F000089526F01B16611D711D811D0C94230D8A
:101900000C943E0D0E94960C0C943D0B0E94360BDD
:1019100058F00E942F0B40F029F45F3F29F00C94FF
:10192000260B51110C94710B0C942C0B0E944E0B36
:1019300068F39923B1F3552391F3951B550BBB27FE
:10194000AA2762177307840738F09F5F5F4F220F43
:10195000331F441FAA1FA9F335D00E2E3AF0E0E83A
:1019600032D091505040E695001CCAF72BD0FE2F84
:1019700029D0660F771F881FBB1F26173707480718
:10198000AB07B0E809F0BB0B802DBF01FF279358D0
:101990005F4F3AF09E3F510578F00C94260B0C9463
:1019A000710B5F3FE4F3983ED4F386957795679586
:1019B000B795F7959F5FC9F7880F911D9695879505
:1019C00097F90895E1E0660F771F881FBB1F621724
:1019D00073078407BA0720F0621B730B840BBA0BE2
:1019E000EE1F88F7E09508950E94560B88F09F57E8
:1019F00098F0B92F9927B751B0F0E1F0660F771F33
:101A0000881F991F1AF0BA95C9F714C0B13091F028
:101A10000E94700BB1E008950C94700B672F782F23
:101A20008827B85F39F0B93FCCF3869577956795ED
:101A3000B395D9F73EF490958095709561957F4F59
:101A40008F4F9F4F0895882371F4772321F098508A
:101A5000872B762F07C0662311F499270DC090516C
:101A6000862B70E060E02AF09A95660F771F881F3A
:101A7000DAF7880F9695879597F908959F3F31F08B
:101A8000915020F4879577956795B795880F911DAC
:101A90009695879597F908950E94560BA0F0BEE79A
:101AA000B91788F4BB279F3860F41616B11D672F4D
:101AB000782F8827985FF7CF869577956795B11D22
:101AC00093959639C8F308950E94EF0BB7FF0895D8
:101AD000821B930B08952A193B094C095D096E0975
:101AE0007F09800B910B0895EE0FFF1F0590F49175
:101AF000E02D09940F931F93CF93DF9382309105CC
:101B000010F482E090E0E091D001F091D10130E05A
:101B100020E0B0E0A0E0309799F42115310509F4F8
:101B20004AC0281B390B24303105D8F58A819B81A6
:101B30006115710589F1FB0193838283FE0111C058
:101B4000408151810281138148175907E0F04817FD
:101B5000590799F4109761F012960C931297139607
:101B60001C933296CF01DF91CF911F910F91089571
:101B70000093D0011093D101F4CF2115310551F01C
:101B80004217530738F0A901DB019A01BD01DF01BB
:101B9000F801C1CFEF01F9CF9093D1018093D0012B
:101BA000CDCFFE01E20FF31F8193919322503109B3
:101BB00039832883D7CF2091CE013091CF01232BB9
:101BC00041F420910601309107013093CF01209319
:101BD000CE0120910401309105012115310541F418
:101BE0002DB73EB74091080150910901241B350BD8
:101BF000E091CE01F091CF01E217F307A0F42E1B84
:101C00003F0B2817390778F0AC014E5F5F4F241760
:101C1000350748F04E0F5F1F5093CF014093CE0120
:101C2000819391939FCFF0E0E0E09CCFCF93DF933F
:101C30000097E9F0FC01329713821282A091D00143
:101C4000B091D101ED0130E020E01097A1F42081A6
:101C50003181820F931F2091CE013091CF0128173F
:101C6000390709F061C0F093CF01E093CE01DF9115
:101C7000CF910895EA01CE17DF07E8F54A815B812D
:101C80009E0141155105B1F7E901FB83EA834991B2
:101C90005991C40FD51FEC17FD0761F48081918124
:101CA0000296840F951FE90199838883828193812D
:101CB0009B838A83F0E0E0E012968D919C911397CC
:101CC0000097B9F52D913C911197CD010296820FA5
:101CD000931F2091CE013091CF012817390739F693
:101CE000309751F51092D1011092D001B093CF01ED
:101CF000A093CE01BCCFD383C28340815181840F96
:101D0000951FC817D90761F44E5F5F4F888199818D
:101D1000480F591F518340838A819B81938382831B
:101D20002115310509F0B0CFF093D101E093D00136
:101D30009ECFFD01DC01C0CF13821282D7CFB0E06D
:101D4000A0E0E5EAFEE00C94980B8C01009751F4BA
:101D5000CB010E947A0D8C01C801CDB7DEB7E0E15E
:101D60000C94B40BFC01E60FF71F9C0122503109C3
:101D7000E217F30708F49DC0D901CD91DC911197CA
:101D8000C617D70798F0C530D10530F3CE010497B8
:101D90008617970708F3C61BD70B2297C193D193D9
:101DA0006D937C93CF010E94160ED6CF5B01AC1AC7
:101DB000BD0A4C018C0E9D1EA091D001B091D101A5
:101DC000512C412CF12CE12C109731F58091CE0152
:101DD0009091CF018815990509F05CC04616570609
:101DE00008F058C08091040190910501009741F4DA
:101DF0008DB79EB74091080150910901841B950B46
:101E0000E817F90708F055C0F093CF01E093CE0131
:101E1000F90171836083A0CF8D919C9111971296E7
:101E20006C90129713967C901397A815B90559F5E5
:101E30006C0142E0C40ED11CCA14DB0420F1AC01D9
:101E40004A195B09DA011296159780F06282738253
:101E500051834083D9016D937C93E114F10471F0B7
:101E6000D7011396FC93EE93129776CF22968C0FA0
:101E70009D1FF90191838083F301EFCFF093D1018E
:101E8000E093D00169CF4816590608F42C017D0172
:101E9000D3019ACFCB010E947A0D7C01009749F0C3
:101EA000AE01B8010E945C0FC8010E94160E8701A6
:101EB00053CF10E000E050CFFB01DC0102C00190E5
:101EC0000D9241505040D8F70895FB01DC018D91EF
:101ED000019080190110D9F3990B0895FB01DC01E1
:101EE00001900D920020E1F7089510E0C2E6D0E0E5
:101EF00004C0FE010E94740D2196C336D107C9F7B4
:041F0000F894FFCF83
:101F0400CDCCCC3D0000D201800000000000E801EF
:101F1400A2017B02E70144025A02CF016572726F8B
:101F2400720041540020002B003D004F4B0D0A006D
:101F3400564F4C0046554E4354494F4E00505000A6
:101F4400504C415900504C41594D4F444500504C60
:061F540041594E554D00FD
:00000001FF
