:020000040000FA
:100000000C9463000C948B000C948B000C9486066B
:100010000C9486060C9486060C948B000C948B0032
:100020000C948B000C948B000C948B000C948B0024
:100030000C948B000C948B000C948B000C948B0014
:100040000C943C060C948B000C948B000C948B004D
:100050000C948B000C948B000C948B000C948B00F4
:100060000C948B000C948B000000000023002600F1
:10007000290000000000240027002A0000000000E2
:10008000250028002B0004040404040404040202D4
:100090000202020203030303030301020408102007
:1000A0004080010204081020010204081020000012
:1000B0000008000201000003040700000000000027
:1000C0000000280B9E0B11241FBECFEFD8E0DEBF2F
:1000D000CDBF11E0A0E0B1E0E6ECF1E202C0059096
:1000E0000D92A036B107D9F721E0A0E6B1E001C03A
:1000F0001D92AC3DB207E1F710E0C2E6D0E004C0CB
:100100002197FE010E94D50EC136D107C9F70E9482
:100110004A070C94D6100C940000FC012481358110
:100120006217730720F480819181009729F410925F
:10013000A50185EA91E00895860F971F08958F9293
:100140009F92AF92BF92CF92DF92EF92FF920F9366
:100150001F93CF93DF93CDB7DEB7A8970FB6F89470
:10016000DEBF0FBECDBF5C01062F8091CD01909107
:10017000CE01DC01ED91FC910084F185E02D099523
:10018000892BB9F4FE0131966F0110E0F12CE12CBE
:100190004F010E151F05C9F0B701C5010E948D0062
:1001A000FC018081D6018D936D01BFEFEB1AFB0A34
:1001B000F0CF8091CD019091CE01DC01ED91FC91C9
:1001C0000284F385E02D0995D0CF8091CD019091E7
:1001D000CE01DC01ED91FC910280F381E02DA801BC
:1001E000B4010995A8960FB6F894DEBF0FBECDBF37
:1001F000DF91CF911F910F91FF90EF90DF90CF9003
:10020000BF90AF909F908F9008950895AF92BF9246
:10021000CF92DF92EF92FF920F931F93CF93DF93D2
:100220006C017B018B01040F151FEB015E01AE1801
:10023000BF08C017D10759F06991D601ED91FC9123
:100240000190F081E02DC6010995892B79F7C50150
:10025000DF91CF911F910F91FF90EF90DF90CF90A2
:10026000BF90AF900895CF93DF9390E0FC01E656E6
:10027000FF4F24918A579F4FFC0184918823D1F02E
:1002800090E0880F991FFC01EE58FF4FA591B491A3
:10029000FC01E458FF4FC591D49161110EC09FB786
:1002A000F8948C91E22FE0958E238C932881E223A1
:1002B000E8839FBFDF91CF9108958FB7F894EC91B9
:1002C000E22BEC938FBFF6CF806480937C0080910B
:1002D0007A00806480937A0080917A0086FDFCCF5A
:1002E000809178009091790008953FB7F8948091BB
:1002F000A1019091A201A091A301B091A40126B502
:10030000A89B05C02F3F19F00196A11DB11D3FBF4D
:10031000BA2FA92F982F8827BC01CD01620F711D1C
:10032000811D911D42E0660F771F881F991F4A9516
:10033000D1F708958F929F92AF92BF92CF92DF92A2
:10034000EF92FF926B017C010E9475014B015C01F1
:10035000C114D104E104F104B9F00E9475016819D7
:1003600079098A099B09683E73408105910580F3EC
:1003700021E0C21AD108E108F10888EE880E83E076
:10038000981EA11CB11CE4CFFF90EF90DF90CF909E
:10039000BF90AF909F908F9008952091A8013091C9
:1003A000A9012817390771F49091A6018091A7013E
:1003B000981741F0E091A601F0E0E05AFE4F8081ED
:1003C00090E008958FEF9FEF08950895EF92FF92C8
:1003D0000F931F93CF93DF93DC015C96ED90FC901D
:1003E0005D97E114F10479F481E090E013969C9319
:1003F0008E93129790E080E0DF91CF911F910F9143
:10040000FF90EF9008955196ED91FC915297509680
:100410008C915097982F90950FB75E962C915E9780
:10042000122F127021FD6095F8942081112319F18B
:10043000282B2083E7012197F1F728E0462F50E091
:10044000308160FF1AC0382B3083E7012197F1F724
:10045000BA0175956795215089F7112381F0808144
:10046000892380830FBF5C968D919C910197F1F752
:1004700081E090E0C1CF2923DCCF3923E5CF908103
:10048000892BEFCF2091A8013091A90128173907B6
:1004900071F48091A7012091A60190E0805C9F4FAC
:1004A000821B910960E470E00E94B10E089590E013
:1004B00080E008952091A8013091A90128173907FB
:1004C000B9F49091A6018091A701981789F0E09165
:1004D000A601F0E0E05AFE4F80812091A60130E0B5
:1004E0002F5F3F4F2F7333272093A60190E008958D
:1004F0008FEF9FEF089590E080E00895FC01248144
:100500003581232B39F421E0FB018081882349F0D8
:1005100020E007C0808191810E94C61021E0892BD4
:10052000B9F7822F08950F931F93CF93DF938C0118
:10053000EB01FC01808191810097E1F06881798174
:1005400061157105A9F0428153812C813D814217CB
:10055000530770F00E94CF108C819D81F801958324
:1005600084831D821C82DF91CF911F910F9108958A
:100570000E94770F88819981F801918380838A8115
:100580009B81938382838C819D819583848319824F
:1005900018821B821A82E5CFFC018081918100972D
:1005A00011F00C94770F08950F931F93CF93DF935F
:1005B000EC0188819981009759F02A813B812617A7
:1005C000370730F081E0DF91CF911F910F910895AF
:1005D0008B016F5F7F4F0E940010009759F0998345
:1005E00088831B830A832C813D81232B59F7FC01CF
:1005F0001082E8CF80E0E7CFEF92FF920F931F9336
:10060000CF93DF936115710541F480E0DF91CF91C5
:100610001F910F91FF90EF90089541155105B1F092
:100620007B01EC010C811D81040F151FB8010E9494
:10063000D402882351F3288139818C819D81B701AF
:10064000820F931F0E94CF101D830C8381E0DECFA9
:10065000FC0101900020E9F73197AF01481B590BCD
:10066000BC0181ED91E00C94FC02EF92FF920F939C
:100670001F93CF93DF93EC017B018A01BA010E94A3
:10068000D40228813981811114C02115310519F056
:10069000C9010E94770F198218821D821C821B8259
:1006A0001A82CE01DF91CF911F910F91FF90EF90B1
:1006B00008951D830C83B701C9010E94CF10F1CFAB
:1006C000FB0101900020E9F73197AF01461B570B62
:1006D0000C9435030F931F93CF93DF93CDB7DEB701
:1006E00062970FB6F894DEBF0FBECDBF8C01CB0171
:1006F000F8011182108213821282158214824AE05C
:10070000BE016F5F7F4F0E94BE0BBE016F5F7F4FC8
:10071000C8010E94600362960FB6F894DEBF0FBE58
:10072000CDBFDF91CF911F910F910895CF93DF93AC
:10073000EC01FB018617970749F060817181611513
:10074000710541F0448155810E943503CE01DF914E
:10075000CF91089588819981009711F00E94770FB9
:10076000198218821D821C821B821A82EFCFFC0123
:100770001182108213821282158214820C949603C5
:10078000FC01118210821382128215821482FB01F5
:1007900001900020E9F73197AF01461B570B0C94ED
:1007A00035032F923F924F925F926F927F928F927A
:1007B0009F92AF92BF92CF92DF92EF92FF920F93F0
:1007C0001F93CF93DF93CDB7DEB762970FB6F89440
:1007D000DEBF0FBECDBF4C01F62E68E371E08E0187
:1007E0000F5F1F4F6801C8010E94C0032F2D30E02A
:1007F0003A8B298B2FB7F8948091C9019091CA0147
:10080000A091CB01B091CC012FBF8C019D0140E0A4
:1008100050E0BA0189871A87AB873C874D875E878E
:100820006F87788B29883A88712C612C26018091FA
:10083000CD019091CE01DC01ED91FC910084F18518
:10084000E02D0995892BD9F08091CD019091CE01B1
:10085000DC01ED91FC910284F385E02D09958F83F5
:10086000188641E050E0BE01695F7F4FC2010E94DF
:10087000FC02B1E02B1A3108EFEF6E1A7E0AB301C9
:1008800061507109C2010E948D00DC018C918A3097
:1008900009F462C08FB7F8944091C9015091CA0120
:1008A0006091CB017091CC018FBF9A01AB0160E0E8
:1008B00070E080E090E0A984BA84CB84DC84ED848D
:1008C000FE840F8518890E94CC0E283E33404105D6
:1008D0005105610571058105910521F11CF16CE15E
:1008E00071E0C4010E94C003CE0101960E94CC02B7
:1008F000C40162960FB6F894DEBF0FBECDBFDF9184
:10090000CF911F910F91FF90EF90DF90CF90BF900C
:10091000AF909F908F907F906F905F904F903F909F
:100920002F9008952114310409F081CF69897A89C3
:10093000CE0101960E948D00DC011C92F40111820F
:1009400010821382128215821482BE016F5F7F4F64
:10095000C4010E949302C8CFB30162507109C20161
:100960000E948D00FC0180818D3009F093CFDECF95
:1009700068E371E00C94C003EF92FF920F931F9312
:10098000CF93DF93EC017B018A010E94B80468E3F6
:1009900071E081ED91E00E94600382E291E00E94AB
:1009A000280365E271E0C7010E947E0281110DC03B
:1009B00087E291E00E942803F7014481558160811C
:1009C000718181ED91E00E94FC0265E271E0C80155
:1009D0000E947E0281110DC089E291E00E942803ED
:1009E000F801448155816081718181ED91E00E941F
:1009F000FC0286E391E00E94280361ED71E0CE01E4
:100A00000E9496038091D5018E83CE01DF91CF9114
:100A10001F910F91FF90EF9008950F931F93CF9325
:100A2000DF93CDB7DEB76A970FB6F894DEBF0FBE7F
:100A3000CDBF2091CF013091D00110E021303105A0
:100A400009F058C08C01CE0108960E94B804B80184
:100A5000CE010F960E946A036BE271E0CE014596CB
:100A60000E94C003AE01415F5F4FBE016B5E7F4FCE
:100A7000CE0101960E94BC04BE016F5F7F4FCE0184
:100A800008960E9493028F818E87CE0101960E9464
:100A9000CC02CE0145960E94CC02CE010F960E9458
:100AA000CC021E85BE01685F7F4FCE0101960E9479
:100AB000B703612FCE0101960E949F00CE010196DF
:100AC0000E94CC0264E0CE0101960E94D10364E34F
:100AD00071E0CE0101960E947E02082FCE010196A0
:100AE0000E94CC0211E0011101C010E0CE01089675
:100AF0000E94CC02812F6A960FB6F894DEBF0FBE1B
:100B0000CDBFDF91CF911F910F910895CF92DF92CA
:100B1000EF92FF920F931F93CF93DF93CDB7DEB782
:100B20006A970FB6F894DEBF0FBECDBFCE01089610
:100B30000E94B80469E371E0CE0145960E94C003AB
:100B40006BE371E0CE010F960E94C003AE014B5ED5
:100B50005F4FBE01615F7F4FCE0101960E94BC04D2
:100B6000BE016F5F7F4FCE0108960E9493028F8176
:100B70008E87CE0101960E94CC02CE010F960E9474
:100B8000CC02CE0145960E94CC021E85BE01685F54
:100B90007F4FCE0101960E94B703612FCE010196CF
:100BA0000E949F00CE0101960E94CC0266E0CE0119
:100BB0000F960E94D103BE01615F7F4FCE01019667
:100BC0000E94B703F12C0F2D10E08D819E81081734
:100BD0001907F8F010E000E0D12CC12C8AE0E82ED3
:100BE0000F1568F5B801CE0101960E948D00EC9CAE
:100BF0009001ED9C300D11246901F0E3CF1AD1086A
:100C0000FC018081C80ED11C87FDDA940F5F1F4F55
:100C1000E7CFB801CE0101960E948D00FC018081D2
:100C20008D30C1F2B8016F5F7F4FCE0101960E94F7
:100C30008D00FC0180818A3069F2F394C4CFCE012B
:100C400001960E94CC02CE010F960E94CC02CE01EA
:100C500008960E94CC02C60199276A960FB6F894AE
:100C6000DEBF0FBECDBFDF91CF911F910F91FF90DF
:100C7000EF90DF90CF9008951F920F920FB60F92D2
:100C800011242F933F938F939F93AF93BF938091A2
:100C9000C9019091CA01A091CB01B091CC013091D2
:100CA000A00123E0230F2D3758F50196A11DB11D9A
:100CB0002093A0018093C9019093CA01A093CB0116
:100CC000B093CC018091A1019091A201A091A301C8
:100CD000B091A4010196A11DB11D8093A101909333
:100CE000A201A093A301B093A401BF91AF919F91E2
:100CF0008F913F912F910F900FBE0F901F901895DD
:100D000026E8230F0296A11DB11DD2CF1F920F928C
:100D10000FB60F9211242F933F934F935F936F93CE
:100D20007F938F939F93AF93BF93EF93FF93E09144
:100D3000A801F091A901309749F0A685B78585856E
:100D4000968D91FF14C09C918923A1F4FF91EF919E
:100D5000BF91AF919F918F917F916F915F914F91D3
:100D60003F912F910F900FBE0F901F9018959C915F
:100D7000892361F7A389B4899C918589809589230A
:100D80008C93868997890197F1F7608D718DA6857F
:100D9000B785558538E020E0CB010197F1F7822F28
:100DA00090E095958795282F4C91452309F0206870
:100DB000315091F7868D81FD20958091A70190E0BB
:100DC00001968F7399273091A601381799F0A09159
:100DD000A701B0E0A05ABE4F2C938093A701828D4B
:100DE000938D0197F1F7A389B4898C919589892B0B
:100DF0008C93ACCF868D8160868FF1CF90E0FC0123
:100E0000E255FF4F2491FC01E656FF4F3491FC015F
:100E1000EA57FF4FE491EE23C9F0222339F0233043
:100E200001F1A8F4213019F1223029F1F0E0EE0FA0
:100E3000FF1FE458FF4FA591B4918FB7F894EC9140
:100E4000611126C030953E233C938FBF0895273013
:100E5000A9F02830C9F0243049F7809180008F7DB7
:100E600003C0809180008F7780938000DFCF84B5AE
:100E70008F7784BDDBCF84B58F7DFBCF8091B000B1
:100E80008F778093B000D2CF8091B0008F7DF9CF63
:100E90003E2BDACFCF93DF93CDB7DEB7A4970FB653
:100EA000F894DEBF0FBECDBF789484B5826084BD58
:100EB00084B5816084BD85B5826085BD85B581605E
:100EC00085BD80916E00816080936E0010928100DC
:100ED0008091810082608093810080918100816097
:100EE0008093810080918000816080938000809158
:100EF000B10084608093B1008091B00081608093E4
:100F0000B00080917A00846080937A0080917A00AA
:100F1000826080937A0080917A00816080937A0069
:100F200080917A00806880937A001092C10061E01D
:100F30008DE00E9433011092C5011092C4011092FD
:100F4000C3011092C2011092C1011092C0018FE141
:100F500090E09093C7018093C6019091B6019631BD
:100F600008F047C021E030E03093C1012093C00178
:100F70002DE130E03093C3012093C2012DE030E039
:100F80003093C5012093C4012091680084E098301B
:100F900048F031E09E3008F430E081E001C0880F75
:100FA0003A95EAF7822B809368002DE630E098307E
:100FB00050F02BE630E09E3030F02CE630E09631F9
:100FC00010F030E020E03093BE012093BD01292FC6
:100FD00030E0983008F004C281E001C0880F9A9593
:100FE000EAF78093BF018091C6019091C7010197F4
:100FF000F1F78091C4019091C501892B49F1E091ED
:10100000A801F091A90121E0EA3AF20709F130972D
:1010100039F0A389B4899C918589809589238C9323
:101020008091C8018E7F8093C8011092A701109211
:10103000A6018AEA91E09093A9018093A801E0912A
:10104000BD01F091BE0180819091BF01892B808309
:101050002AEAE22E21E0F22ECE0142960E94B80446
:10106000F092CE01E092CD0165E271E0CE014F96A3
:101070000E94C00365E271E0CE0149960E94C00360
:10108000AE01415E5F4FBE01675E7F4FCE010196AC
:101090000E94BC04BE016F5F7F4FCE0142960E944A
:1010A00093028F81888FCE0101960E94CC02CE01DF
:1010B00049960E94CC02CE014F960E94CC02188D18
:1010C000BE016E5E7F4FCE0101960E94B703612F75
:1010D000CE0101960E949F00CE0101960E94CC0293
:1010E00064E0CE0101960E94D10364E371E0CE0179
:1010F00001960E947E02182FCE0101960E94CC021A
:10110000CE0142960E94CC02112309F4A5CFCE0154
:1011100042960E94B80418A21F8E1AA219A21CA2FD
:101120001BA24AE0BE016F5F7F4F8EE190E00E94FC
:10113000C90BBE016F5F7F4FCE014F960E946003C7
:1011400061E471E0CE0149960E94C003AE01415EA8
:101150005F4FBE01675E7F4FCE0101960E94BC04C7
:10116000BE016F5F7F4FCE0142960E9493028F8136
:10117000888FCE0101960E94CC02CE0149960E9432
:10118000CC02CE014F960E94CC02188DBE016E5E3D
:101190007F4FCE0101960E94B703612FCE010196C9
:1011A0000E949F00CE0101960E94CC0264E0CE0115
:1011B00001960E94D103CE0101960E94CC02CE017D
:1011C00042960E94CC02CE0142960E94B80461E091
:1011D00070E0CE014F960E946A0365E471E0CE0193
:1011E00049960E94C003AE01415E5F4FBE01675E3B
:1011F0007F4FCE0101960E94BC04BE016F5F7F4FFE
:10120000CE0142960E9493028F81888FCE01019673
:101210000E94CC02CE0149960E94CC02CE014F968C
:101220000E94CC0281E090E09093D0018093CF01A6
:10123000188DBE016E5E7F4FCE0101960E94B703EE
:10124000612FCE0101960E949F00CE0101960E945F
:10125000CC021092D70164E0CE0101960E94D10326
:1012600064E371E0CE0101960E947E02182FCE0148
:1012700001960E94CC02112331F06CED75E080E004
:1012800090E00E949A01CE0142960E94CC02CE01CB
:1012900042960E94B8046EE471E0CE014F960E941F
:1012A000C00361E571E0CE0149960E94C003AE0122
:1012B000415E5F4FBE01675E7F4FCE0101960E9487
:1012C000BC04BE016F5F7F4FCE0142960E94930225
:1012D0008F81888FCE0101960E94CC02CE01499663
:1012E0000E94CC02CE014F960E94CC028091D70181
:1012F0008130E9F081E08093D701188DBE016E5EE8
:101300007F4FCE0101960E94B703612FCE01019657
:101310000E949F00CE0101960E94CC0264E0CE01A3
:1013200001960E94D103CE0101960E94CC02CE010B
:1013300042960E94CC0244244A9483E0582E612CA9
:10134000712C96E0292E312C85B190E2892785B940
:1013500083E00E9464018090000190900101A090C0
:101360000201B090030129E13AE0DC010E94C50EC0
:10137000A30192010E94EE0CCA01B9016D58744795
:101380008F4F9F4F0E94F50B20E030E44CE156E474
:101390000E94F50DA50194010E94300C6B017C01A7
:1013A000A501940160E070E080E89FE30E94880D51
:1013B0009B01AC01C701B6010E94300C6093000193
:1013C00070930101809302019093030182E00E94D7
:1013D0006401009791F481E090E00E940D056DC0DA
:1013E0009E3040F42850310981E001C0880F2A95D1
:1013F000EAF7F7CD2E503109F7CF01978F3F914093
:1014000008F023C181E090E00E940D058091CF019A
:101410009091D001019709F050C0CE0142960E94F0
:10142000B80466E571E0CE0149960E94C00361E50B
:1014300071E0CE014F960E94C003AE01475E5F4F40
:10144000BE01615E7F4FCE0101960E94BC04BE01C9
:101450006F5F7F4FCE0142960E9493028F81888FEB
:10146000CE0101960E94CC02CE014F960E94CC0282
:10147000CE0149960E94CC02188DBE016E5E7F4F50
:10148000CE0101960E94B703612FCE0101960E9402
:101490009F00CE0101960E94CC0281E08093D7018B
:1014A00064E0CE0101960E94D103CE0101960E9414
:1014B000CC02CE0142960E94CC028091CF01909145
:1014C000D001F12CE12C019719F40E9486057C01D2
:1014D00081E00E9464018C018091CF019091D00144
:1014E000019709F078C08090000190900101A090D0
:1014F0000201B0900301CE0142960E94B8041A8EF8
:10150000198E1C8E1B8E1E8E1D8EB801110F880B1E
:10151000990B0E94F50BA50194010E94300C0E94CA
:10152000670E9B01AC01D7010E940D0DA301920132
:101530000E94EE0CC9014AE0BE016F5F7F4F0E941E
:10154000C90BBE016F5F7F4FCE0149960E946003B9
:101550006BE571E0CE014F960E94C003AE01475E7D
:101560005F4FBE01615E7F4FCE0101960E94BC04B9
:10157000BE016F5F7F4FCE0142960E9493028F8122
:10158000888FCE0101960E94CC02CE014F960E9418
:10159000CC02CE0149960E94CC02188DBE016E5E2F
:1015A0007F4FCE0101960E94B703612FCE010196B5
:1015B0000E949F00CE0101960E94CC0264E0CE0101
:1015C00001960E94D103CE0101960E94CC02CE0169
:1015D00042960E94CC0285B190E2892785B980911C
:1015E000CF019091D00110E000E0019719F40E9422
:1015F00086058C0180E00E946401FC01C801B101F4
:101600000E949D0E84E6869F9001879F300D1124D5
:1016100050E040E02150310941095109DF010E94A9
:10162000180DA30192010E94EE0CCA01B9016F5F6F
:101630007F4F8F4F9F4F0E949A0180E090E0892B4F
:1016400009F482CE0E9400007FCE84E090E0C5CEF7
:101650001092AD011092AC0188EE93E0A0E0B0E0F2
:101660008093AE019093AF01A093B001B093B1010C
:101670008EE091E09093AB018093AA011092C1019A
:101680001092C0011092C3011092C2011092C501C4
:101690001092C4011092C7011092C6016091C80156
:1016A0006E7F6D7F6093C8016695617081E06827E9
:1016B00083E00E94FE0661E083E00E943301EDE9D1
:1016C000F0E0E491E093BA01E9E8F0E0E491F0E0C1
:1016D000EE0FFF1FE458FF4F859194919093BC014A
:1016E0008093BB0160E082E00E9433018091C801D9
:1016F00081FD04C061E082E00E94FE0682E08093EA
:10170000B601ECE9F0E0E491E093B701E8E8F0E03D
:10171000E491F0E0EE0FFF1FE859FF4F859194919F
:101720009093B9018093B8011092CE011092CD012F
:1017300068E371E081ED91E00C94C00381ED91E0EC
:101740000E94CC028EE091E09093AB018093AA01BD
:101750008091A8019091A9018A5A914071F4E09179
:10176000BD01F091BE0190818091BF0180958923D8
:1017700080831092A9011092A8010895BB274A30D6
:1017800031F4992322F4BDE2909581959F4F0C94FA
:10179000CA0BBB27FB015527AA27880F991FAA1F31
:1017A000A41710F0A41B83955051B9F7A05DAA337C
:1017B00008F0A95DA193009779F7B111B193119247
:1017C000CB010C94E30BDC01FC01672F71917723B3
:1017D000E1F7329704C07C916D9370836291AE17EC
:1017E000BF07C8F30895E89409C097FB3EF49095AD
:1017F0008095709561957F4F8F4F9F4F9923A9F0EA
:10180000F92F96E9BB279395F69587957795679578
:10181000B795F111F8CFFAF4BB0F11F460FF1BC0BC
:101820006F5F7F4F8F4F9F4F16C0882311F096E94F
:1018300011C0772321F09EE8872F762F05C06623FD
:1018400071F096E8862F70E060E02AF09A95660FB6
:10185000771F881FDAF7880F9695879597F908956F
:101860000E94430C0C94B40C0E94A60C38F00E9409
:10187000AD0C20F0952311F00C949D0C0C94A30C4E
:1018800011240C94E80C0E94C50C70F3959FC1F3D1
:10189000950F50E0551F629FF001729FBB27F00D1E
:1018A000B11D639FAA27F00DB11DAA1F649F662773
:1018B000B00DA11D661F829F2227B00DA11D621FC2
:1018C000739FB00DA11D621F839FA00D611D221F7C
:1018D000749F3327A00D611D231F849F600D211D60
:1018E000822F762F6A2F11249F5750409AF0F1F0E3
:1018F00088234AF0EE0FFF1FBB1F661F771F881F4C
:1019000091505040A9F79E3F510580F00C949D0CDA
:101910000C94E80C5F3FE4F3983ED4F386957795FA
:101920006795B795F795E7959F5FC1F7FE2B880FF1
:10193000911D9695879597F9089597F99F6780E887
:1019400070E060E008959FEF80EC089500240A9411
:101950001616170618060906089500240A9412168A
:101960001306140605060895092E0394000C11F4BD
:10197000882352F0BB0F40F4BF2B11F460FF04C06A
:101980006F5F7F4F8F4F9F4F089557FD9058440FC3
:10199000551F59F05F3F71F04795880F97FB991FCE
:1019A00061F09F3F79F0879508951216130614068B
:1019B000551FF2CF4695F1DF08C016161706180618
:1019C000991FF1CF86957105610508940895E894F3
:1019D000BB2766277727CB0197F90895052E97FB3C
:1019E0001EF400940E94050D57FD07D00E94570D6C
:1019F00007FC03D04EF40C94050D5095409530959E
:101A000021953F4F4F4F5F4F08959095809570956A
:101A100061957F4F8F4F9F4F08950E94790DA59F2D
:101A2000900DB49F900DA49F800D911D11240895D9
:101A3000B7FF0C940D0D0E940D0D821B930B0895A2
:101A40002F923F924F925F926F927F928F929F92CE
:101A5000AF92BF92CF92DF92EF92FF920F931F93BC
:101A6000CF93DF93CDB7DEB7CA1BDB0B0FB6F8946D
:101A7000DEBF0FBECDBF09942A88398848885F84AD
:101A80006E847D848C849B84AA84B984C884DF801E
:101A9000EE80FD800C811B81AA81B981CE0FD11D02
:101AA0000FB6F894DEBF0FBECDBFED010895A1E2E1
:101AB0001A2EAA1BBB1BFD010DC0AA1FBB1FEE1FC8
:101AC000FF1FA217B307E407F50720F0A21BB30B13
:101AD000E40BF50B661F771F881F991F1A9469F78F
:101AE00060957095809590959B01AC01BD01CF01EB
:101AF0000895A29FB001B39FC001A39F700D811DE7
:101B00001124911DB29F700D811D1124911D089506
:101B10005058BB27AA270E94A00D0C94B40C0E9419
:101B2000A60C38F00E94AD0C20F039F49F3F19F458
:101B300026F40C94A30C0EF4E095E7FB0C949D0C9A
:101B4000E92F0E94C50C58F3BA1762077307840780
:101B5000950720F079F4A6F50C94E70C0EF4E095C7
:101B60000B2EBA2FA02D0B01B90190010C01CA0157
:101B7000A0011124FF27591B99F0593F50F4503E02
:101B800068F11A16F040A22F232F342F4427585FF4
:101B9000F3CF469537952795A795F0405395C9F70C
:101BA0007EF41F16BA0B620B730B840BBAF09150C4
:101BB000A1F0FF0FBB1F661F771F881FC2F70EC063
:101BC000BA0F621F731F841F48F487957795679536
:101BD000B795F7959E3F08F0B0CF9395880F08F022
:101BE0009927EE0F9795879508950E94090E0C94FA
:101BF000B40C0E94AD0C58F00E94A60C40F029F4E1
:101C00005F3F29F00C949D0C51110C94E80C0C943E
:101C1000A30C0E94C50C68F39923B1F3552391F3EB
:101C2000951B550BBB27AA2762177307840738F04B
:101C30009F5F5F4F220F331F441FAA1FA9F335D0A8
:101C40000E2E3AF0E0E832D091505040E695001C5C
:101C5000CAF72BD0FE2F29D0660F771F881FBB1F16
:101C6000261737074807AB07B0E809F0BB0B802DF4
:101C7000BF01FF2793585F4F3AF09E3F510578F020
:101C80000C949D0C0C94E80C5F3FE4F3983ED4F365
:101C9000869577956795B795F7959F5FC9F7880FF4
:101CA000911D9695879597F90895E1E0660F771F46
:101CB000881FBB1F621773078407BA0720F0621BD7
:101CC000730B840BBA0BEE1F88F7E09508950E9402
:101CD0006E0E6894B1110C94E80C08950E94CD0C1E
:101CE00088F09F5798F0B92F9927B751B0F0E1F0DD
:101CF000660F771F881F991F1AF0BA95C9F714C08D
:101D0000B13091F00E94E70CB1E008950C94E70C1B
:101D1000672F782F8827B85F39F0B93FCCF38695C5
:101D200077956795B395D9F73EF490958095709522
:101D300061957F4F8F4F9F4F0895AA1BBB1B51E1A9
:101D400007C0AA1FBB1FA617B70710F0A61BB70B2B
:101D5000881F991F5A95A9F780959095BC01CD01D0
:101D6000089597FB072E16F4009407D077FD09D04D
:101D70000E949D0E07FC05D03EF4909581959F4FE3
:101D80000895709561957F4F08950E94790DB7FF72
:101D90000895821B930B08952A193B094C095D098C
:101DA0006E097F09800B910B0895EE0FFF1F0590C0
:101DB000F491E02D09940F931F93CF93DF9382301A
:101DC000910510F482E090E0E091DA01F091DB01FE
:101DD00030E020E0B0E0A0E0309799F42115310523
:101DE00009F44AC0281B390B24303105D8F58A8103
:101DF0009B816115710589F1FB0193838283FE014B
:101E000011C0408151810281138148175907E0F0C8
:101E10004817590799F4109761F012960C9312978E
:101E200013961C933296CF01DF91CF911F910F91A2
:101E300008950093DA011093DB01F4CF21153105E9
:101E400051F04217530738F0A901DB019A01BD0197
:101E5000DF01F801C1CFEF01F9CF9093DB0180934F
:101E6000DA01CDCFFE01E20FF31F8193919322504F
:101E7000310939832883D7CF2091D8013091D901F6
:101E8000232B41F420910601309107013093D901B1
:101E90002093D801209104013091050121153105CD
:101EA00041F42DB73EB74091080150910901241B20
:101EB000350BE091D801F091D901E217F307A0F4B6
:101EC0002E1B3F0B2817390778F0AC014E5F5F4F90
:101ED0002417350748F04E0F5F1F5093D9014093E8
:101EE000D801819391939FCFF0E0E0E09CCFCF9316
:101EF000DF930097E9F0FC01329713821282A091E0
:101F0000DA01B091DB01ED0130E020E01097A1F49F
:101F100020813181820F931F2091D8013091D90106
:101F20002817390709F061C0F093D901E093D8016F
:101F3000DF91CF910895EA01CE17DF07E8F54A81D6
:101F40005B819E0141155105B1F7E901FB83EA83ED
:101F500049915991C40FD51FEC17FD0761F4808199
:101F600091810296840F951FE9019983888382816C
:101F700093819B838A83F0E0E0E012968D919C919F
:101F800013970097B9F52D913C911197CD010296C9
:101F9000820F931F2091D8013091D901281739075A
:101FA00039F6309751F51092DB011092DA01B093B7
:101FB000D901A093D801BCCFD383C2834081518182
:101FC000840F951FC817D90761F44E5F5F4F888152
:101FD0009981480F591F518340838A819B81938344
:101FE00082832115310509F0B0CFF093DB01E09336
:101FF000DA019ECFFD01DC01C0CF13821282D7CF60
:10200000B0E0A0E0E6E0F0E10C94220D8C01009736
:1020100051F4CB010E94DB0E8C01C801CDB7DEB7B5
:10202000E0E10C943E0DFC01E60FF71F9C012250ED
:102030003109E217F30708F49DC0D901CD91DC9175
:102040001197C617D70798F0C530D10530F3CE01E8
:1020500004978617970708F3C61BD70B2297C193DF
:10206000D1936D937C93CF010E94770FD6CF5B0104
:10207000AC1ABD0A4C018C0E9D1EA091DA01B091E4
:10208000DB01512C412CF12CE12C109731F5809182
:10209000D8019091D9018815990509F05CC04616C0
:1020A000570608F058C080910401909105010097EF
:1020B00041F48DB79EB74091080150910901841BEE
:1020C000950BE817F90708F055C0F093D901E09394
:1020D000D801F90171836083A0CF8D919C911197F4
:1020E00012966C90129713967C901397A815B905C9
:1020F00059F56C0142E0C40ED11CCA14DB0420F176
:10210000AC014A195B09DA011296159780F06282D8
:10211000738251834083D9016D937C93E114F10460
:1021200071F0D7011396FC93EE93129776CF229617
:102130008C0F9D1FF90191838083F301EFCFF09302
:10214000DB01E093DA0169CF4816590608F42C0147
:102150007D01D3019ACFCB010E94DB0E7C01009759
:1021600049F0AE01B8010E94BD10C8010E94770F6E
:10217000870153CF10E000E050CFFB01DC0102C02B
:1021800001900D9241505040D8F70895FB01DC01B9
:102190008D91019080190110D9F3990B0895FB01DD
:1021A000DC0101900D920020E1F7089510E0C2E6F5
:1021B000D0E004C0FE010E94D50E2196C336D1079F
:1021C000C9F7F894FFCF0000003F0000DC01800059
:1021D00000000000E60106017B02E50142025A020E
:1021E000CD016572726F720041540020002B003DDA
:1021F00000504C41594D4F4445004F4B0D0A00349F
:1022000000515545525900564F4C0046554E4354C7
:10221000494F4E00505000504C4159004E455854C3
:062220000054494D450089
:107E0000112484B714BE81FFF0D085E080938100F7
:107E100082E08093C00088E18093C10086E0809377
:107E2000C20080E18093C4008EE0C9D0259A86E02C
:107E300020E33CEF91E0309385002093840096BBD3
:107E4000B09BFECF1D9AA8958150A9F7CC24DD24C4
:107E500088248394B5E0AB2EA1E19A2EF3E0BF2EE7
:107E6000A2D0813461F49FD0082FAFD0023811F036
:107E7000013811F484E001C083E08DD089C08234E0
:107E800011F484E103C0853419F485E0A6D080C0E4
:107E9000853579F488D0E82EFF2485D0082F10E0AE
:107EA000102F00270E291F29000F111F8ED06801E7
:107EB0006FC0863521F484E090D080E0DECF843638
:107EC00009F040C070D06FD0082F6DD080E0C81688
:107ED00080E7D80618F4F601B7BEE895C0E0D1E017
:107EE00062D089930C17E1F7F0E0CF16F0E7DF06D8
:107EF00018F0F601B7BEE89568D007B600FCFDCFD4
:107F0000A601A0E0B1E02C9130E011968C91119780
:107F100090E0982F8827822B932B1296FA010C0160
:107F200087BEE89511244E5F5F4FF1E0A038BF0790
:107F300051F7F601A7BEE89507B600FCFDCF97BE46
:107F4000E89526C08437B1F42ED02DD0F82E2BD052
:107F50003CD0F601EF2C8F010F5F1F4F84911BD097
:107F6000EA94F801C1F70894C11CD11CFA94CF0C13
:107F7000D11C0EC0853739F428D08EE10CD085E9AC
:107F80000AD08FE07ACF813511F488E018D01DD067
:107F900080E101D065CF982F8091C00085FFFCCF94
:107FA0009093C60008958091C00087FFFCCF809118
:107FB000C00084FD01C0A8958091C6000895E0E648
:107FC000F0E098E1908380830895EDDF803219F02E
:107FD00088E0F5DFFFCF84E1DECF1F93182FE3DFCA
:107FE0001150E9F7F2DF1F91089580E0E8DFEE27F6
:047FF000FF270994CA
:027FFE00040479
:00000001FF
