:020000040000FA
:100000000C9463000C948B000C948B000C94B6063B
:100010000C94B6060C94B6060C948B000C948B00D2
:100020000C948B000C948B000C948B000C948B0024
:100030000C948B000C948B000C948B000C948B0014
:100040000C946C060C948B000C948B000C948B001D
:100050000C948B000C948B000C948B000C948B00F4
:100060000C948B000C948B000000000023002600F1
:10007000290000000000240027002A0000000000E2
:10008000250028002B0004040404040404040202D4
:100090000202020203030303030301020408102007
:1000A0004080010204081020010204081020000012
:1000B0000008000201000003040700000000000027
:1000C0000000050C7B0C11241FBECFEFD8E0DEBF73
:1000D000CDBF11E0A0E0B1E0E8E1F0E202C00590A0
:1000E0000D92AA36B107D9F723E0AAE6B1E001C024
:1000F0001D92AF34B207E1F710E0C2E6D0E004C0D1
:100100002197FE010E94FE0DC136D107C9F70E945A
:100110007A070C94FF0F0C940000FC0124813581B8
:100120006217730720F480819181009729F410925F
:10013000AF018FEA91E00895860F971F08958F927F
:100140009F92AF92BF92CF92DF92EF92FF920F9366
:100150001F93CF93DF93CDB7DEB7A8970FB6F89470
:10016000DEBF0FBECDBF5C01062F80914003909192
:100170004103DC01ED91FC910084F185E02D0995AE
:10018000892BB9F4FE0131966F0110E0F12CE12CBE
:100190004F010E151F05C9F0B701C5010E948D0062
:1001A000FC018081D6018D936D01BFEFEB1AFB0A34
:1001B000F0CF8091400390914103DC01ED91FC91DF
:1001C0000284F385E02D0995D0CF80914003909172
:1001D0004103DC01ED91FC910280F381E02DA80147
:1001E000B4010995A8960FB6F894DEBF0FBECDBF37
:1001F000DF91CF911F910F91FF90EF90DF90CF9003
:10020000BF90AF909F908F9008950895AF92BF9246
:10021000CF92DF92EF92FF920F931F93CF93DF93D2
:100220006C017B018B01040F151FEB015E01AE1801
:10023000BF08C017D10759F06991D601ED91FC9123
:100240000190F081E02DC6010995892B79F7C50150
:10025000DF91CF911F910F91FF90EF90DF90CF90A2
:10026000BF90AF900895CF93DF9390E0FC01E656E6
:10027000FF4F24918A579F4FFC0184918823D1F02E
:1002800090E0880F991FFC01EE58FF4FA591B491A3
:10029000FC01E458FF4FC591D49161110EC09FB786
:1002A000F8948C91E22FE0958E238C932881E223A1
:1002B000E8839FBFDF91CF9108958FB7F894EC91B9
:1002C000E22BEC938FBFF6CF806480937C0080910B
:1002D0007A00806480937A0080917A0086FDFCCF5A
:1002E000809178009091790008953FB7F8948091BB
:1002F000AB019091AC01A091AD01B091AE0126B5DA
:10030000A89B05C02F3F19F00196A11DB11D3FBF4D
:10031000BA2FA92F982F8827BC01CD01620F711D1C
:10032000811D911D42E0660F771F881F991F4A9516
:10033000D1F708958F929F92AF92BF92CF92DF92A2
:10034000EF92FF926B017C010E9475014B015C01F1
:10035000C114D104E104F104B9F00E9475016819D7
:1003600079098A099B09683E73408105910580F3EC
:1003700021E0C21AD108E108F10888EE880E83E076
:10038000981EA11CB11CE4CFFF90EF90DF90CF909E
:10039000BF90AF909F908F9008952091B2013091BF
:1003A000B3012817390771F49091B0018091B10120
:1003B000981741F0E091B001F0E0E659FE4F8081DE
:1003C00090E008958FEF9FEF08950895EF92FF92C8
:1003D0000F931F93CF93DF93DC015C96ED90FC901D
:1003E0005D97E114F10479F481E090E013969C9319
:1003F0008E93129790E080E0DF91CF911F910F9143
:10040000FF90EF9008955196ED91FC915297509680
:100410008C915097982F90950FB75E962C915E9780
:10042000122F127021FD6095F8942081112319F18B
:10043000282B2083E7012197F1F728E0462F50E091
:10044000308160FF1AC0382B3083E7012197F1F724
:10045000BA0175956795215089F7112381F0808144
:10046000892380830FBF5C968D919C910197F1F752
:1004700081E090E0C1CF2923DCCF3923E5CF908103
:10048000892BEFCF2091B2013091B30128173907A2
:1004900071F48091B1012091B00190E0805C9F4F98
:1004A000821B910960E470E00E94DA0D089590E0EB
:1004B00080E008952091B2013091B30128173907E7
:1004C000B9F49091B0018091B101981789F0E09151
:1004D000B001F0E0E659FE4F80812091B00130E09C
:1004E0002F5F3F4F2F7333272093B00190E0089583
:1004F0008FEF9FEF089590E080E00895CF93DF9312
:10050000EC0188819981009711F00E94A00E198258
:1005100018821D821C821B821A82DF91CF9108955E
:10052000FC0180819181009711F00C94A00E089538
:100530000F931F93CF93DF938C01EB01FC0180811C
:1005400091810097E1F06881798161157105A9F0C9
:10055000428153812C813D814217530770F00E94E4
:10056000F80F8C819D81F801958384831D821C8204
:10057000DF91CF911F910F9108950E94A00E888165
:100580009981F801918380838A819B8193838283FF
:100590008C819D8195838483198218821B821A82A3
:1005A000E5CFFC0124813581232B39F421E0FB01C7
:1005B0008081882349F020E007C0808191810E94DA
:1005C000EF0F21E0892BB9F7822F08950F931F9326
:1005D000CF93DF93EC0188819981009759F02A81AC
:1005E0003B812617370730F081E0DF91CF911F91D3
:1005F0000F9108958B016F5F7F4F0E94290F009725
:1006000059F0998388831B830A832C813D81232B96
:1006100059F7FC011082E8CF80E0E7CFEF92FF921C
:100620000F931F93CF93DF936115710541F480E021
:10063000DF91CF911F910F91FF90EF900895411599
:100640005105B1F07B01EC010C811D81040F151FD8
:10065000B8010E94E602882351F3288139818C81F8
:100660009D81B701820F931F0E94F80F1D830C8399
:1006700081E0DECFFC0101900020E9F73197AF0166
:10068000481B590BBC0184E493E00C940E03EF92D9
:10069000FF920F931F93CF93DF93EC017B018A01AD
:1006A000BA010E94E60281110BC0CE010E947E02B7
:1006B000CE01DF91CF911F910F91FF90EF900895A0
:1006C0001D830C83B701888199810E94F80FF0CFB8
:1006D000FB0101900020E9F73197AF01461B570B52
:1006E0000C9447030F931F93CF93DF93CDB7DEB7DF
:1006F00062970FB6F894DEBF0FBECDBF8C01CB0161
:10070000F8011182108213821282158214824AE04B
:10071000BE016F5F7F4F0E94F70CBE016F5F7F4F7E
:10072000C8010E94680362960FB6F894DEBF0FBE40
:10073000CDBFDF91CF911F910F9108950F931F931C
:10074000CF93DF93CDB7DEB761970FB6F894DEBFD6
:100750000FBECDBF8C01CB01F80111821082138234
:100760001282158214824AE0BE016F5F7F4F0E94A1
:10077000020DBE016F5F7F4FC8010E946803619642
:100780000FB6F894DEBF0FBECDBFDF91CF911F91A2
:100790000F910895CF93DF93EC01FB018617970724
:1007A00049F0608171816115710541F04481558185
:1007B0000E944703CE01DF91CF9108950E947E02EF
:1007C000F9CFFC01118210821382128215821482E9
:1007D0000C94CA03FC0111821082138212821582CA
:1007E0001482FB0101900020E9F73197AF01461B0D
:1007F000570B0C9447032F923F924F925F926F9248
:100800007F928F929F92AF92BF92CF92DF92EF92A0
:10081000FF920F931F93CF93DF93CDB7DEB762970D
:100820000FB6F894DEBF0FBECDBF4C01F62E60E4CC
:1008300071E08E010F5F1F4F6801C8010E94EA033B
:100840002F2D30E03A8B298B2FB7F89480913C0301
:1008500090913D03A0913E03B0913F032FBF8C01C7
:100860009D0140E050E0BA0189871A87AB873C8739
:100870004D875E876F87788B29883A88712C612C29
:1008800026018091400390914103DC01ED91FC91A0
:100890000084F185E02D0995892BD9F080914003E2
:1008A00090914103DC01ED91FC910284F385E02DF0
:1008B00009958F83188641E050E0BE01695F7F4F44
:1008C000C2010E940E03B1E02B1A3108EFEF6E1A3D
:1008D0007E0AB30161507109C2010E948D00DC01E2
:1008E0008C918A3009F468C08FB7F89440913C032A
:1008F00050913D0360913E0370913F038FBF9A0179
:10090000AB0160E070E080E090E0A984BA84CB8421
:10091000DC84ED84FE840F8518890E94F50D283E45
:10092000334041055105610571058105910521F1AE
:100930001CF164E271E0C4010E94EA03CE01019659
:100940000E949002C40162960FB6F894DEBF0FBEFB
:10095000CDBFDF91CF911F910F91FF90EF90DF906E
:10096000CF90BF90AF909F908F907F906F905F904F
:100970004F903F902F9008952114310409F081CFBA
:1009800069897A89CE0101960E948D00DC011C9252
:1009900089819A81F401918380838B819C819383E7
:1009A00082838D819E81958384831A8219821C8221
:1009B0001B821E821D82C2CFB30162507109C20127
:1009C0000E948D00FC0180818D3009F08DCFD8CF41
:1009D00060E471E00C94EA03EF92FF920F931F938F
:1009E000CF93DF93EC017B018A010E94E80460E46D
:1009F00071E084E493E00E9468038AE291E00E943F
:100A00003A036DE271E0C7010E94D10281110DC06D
:100A10008FE291E00E943A03F701448155816081A1
:100A2000718184E493E00E940E036DE271E0C801DD
:100A30000E94D10281110DC081E391E00E943A032E
:100A4000F801448155816081718184E493E00E94C2
:100A50000E038EE391E00E943A0364E473E0CE015A
:100A60000E94CA03809148038E83CE01DF91CF910B
:100A70001F910F91FF90EF9008950F931F93CF93C5
:100A8000DF93CDB7DEB76A970FB6F894DEBF0FBE1F
:100A9000CDBF209142033091430310E02130310556
:100AA00009F058C08C01CE0108960E94E804B801F4
:100AB000CE010F960E94720363E371E0CE0145966A
:100AC0000E94EA03AE01415F5F4FBE016B5E7F4F44
:100AD000CE0101960E94EC04BE016F5F7F4FCE01F4
:100AE00008960E9498028F818E87CE0101960E94FF
:100AF0009002CE0145960E949002CE010F960E9470
:100B000090021E85BE01685F7F4FCE0101960E9454
:100B1000E103612FCE0101960E949F00CE01019654
:100B20000E94900264E0CE0101960E94FB036CE3F8
:100B300071E0CE0101960E94D102082FCE010196EC
:100B40000E94900211E0011101C010E0CE01089650
:100B50000E949002812F6A960FB6F894DEBF0FBEF6
:100B6000CDBFDF91CF911F910F910895CF92DF926A
:100B7000EF92FF920F931F93CF93DF93CDB7DEB722
:100B80006A970FB6F894DEBF0FBECDBFCE010896B0
:100B90000E94E80461E471E0CE0145960E94EA03F8
:100BA00063E471E0CE010F960E94EA03AE014B5E52
:100BB0005F4FBE01615F7F4FCE0101960E94EC0442
:100BC000BE016F5F7F4FCE0108960E9498028F8111
:100BD0008E87CE0101960E949002CE010F960E9450
:100BE0009002CE0145960E9490021E85BE01685F6C
:100BF0007F4FCE0101960E94E103612FCE01019645
:100C00000E949F00CE0101960E94900266E0CE01F4
:100C10000F960E94FB03BE01615F7F4FCE010196DC
:100C20000E94E103F12C0F2D10E08D819E810817A9
:100C30001907F8F010E000E0D12CC12C8AE0E82E72
:100C40000F1568F5B801CE0101960E948D00EC9C4D
:100C50009001ED9C300D11246901F0E3CF1AD10809
:100C6000FC018081C80ED11C87FDDA940F5F1F4FF5
:100C7000E7CFB801CE0101960E948D00FC01808172
:100C80008D30C1F2B8016F5F7F4FCE0101960E9497
:100C90008D00FC0180818A3069F2F394C4CFCE01CB
:100CA00001960E949002CE010F960E949002CE0102
:100CB00008960E949002C60199276A960FB6F8948A
:100CC000DEBF0FBECDBFDF91CF911F910F91FF907F
:100CD000EF90DF90CF9008951F920F920FB60F9272
:100CE00011242F933F938F939F93AF93BF93809142
:100CF0003C0390913D03A0913E03B0913F0330919E
:100D0000AA0123E0230F2D3758F50196A11DB11D2F
:100D10002093AA0180933C0390933D03A0933E034C
:100D2000B0933F038091AB019091AC01A091AD01D4
:100D3000B091AE010196A11DB11D8093AB019093BE
:100D4000AC01A093AD01B093AE01BF91AF919F9163
:100D50008F913F912F910F900FBE0F901F9018957C
:100D600026E8230F0296A11DB11DD2CF1F920F922C
:100D70000FB60F9211242F933F934F935F936F936E
:100D80007F938F939F93AF93BF93EF93FF93E091E4
:100D9000B201F091B301309749F0A685B7858585FA
:100DA000968D91FF14C09C918923A1F4FF91EF913E
:100DB000BF91AF919F918F917F916F915F914F9173
:100DC0003F912F910F900FBE0F901F9018959C91FF
:100DD000892361F7A389B4899C91858980958923AA
:100DE0008C93868997890197F1F7608D718DA6851F
:100DF000B785558538E020E0CB010197F1F7822FC8
:100E000090E095958795282F4C91452309F020680F
:100E1000315091F7868D81FD20958091B10190E050
:100E200001968F7399273091B001381799F0A091EE
:100E3000B101B0E0A659BE4F2C938093B101828DD1
:100E4000938D0197F1F7A389B4898C919589892BAA
:100E50008C93ACCF868D8160868FF1CF90E0FC01C2
:100E6000E255FF4F2491FC01E656FF4F3491FC01FF
:100E7000EA57FF4FE491EE23C9F0222339F02330E3
:100E800001F1A8F4213019F1223029F1F0E0EE0F40
:100E9000FF1FE458FF4FA591B4918FB7F894EC91E0
:100EA000611126C030953E233C938FBF08952730B3
:100EB000A9F02830C9F0243049F7809180008F7D57
:100EC00003C0809180008F7780938000DFCF84B54E
:100ED0008F7784BDDBCF84B58F7DFBCF8091B00051
:100EE0008F778093B000D2CF8091B0008F7DF9CF03
:100EF0003E2BDACFCF93DF93CDB7DEB7A2970FB6F5
:100F0000F894DEBF0FBECDBF789484B5826084BDF7
:100F100084B5816084BD85B5826085BD85B58160FD
:100F200085BD80916E00816080936E00109281007B
:100F30008091810082608093810080918100816036
:100F400080938100809180008160809380008091F7
:100F5000B10084608093B1008091B0008160809383
:100F6000B00080917A00846080937A0080917A004A
:100F7000826080937A0080917A00816080937A0009
:100F800080917A00806880937A001092C10061E0BD
:100F90008DE00E9433011092CF011092CE01109289
:100FA000CD011092CC011092CB011092CA018FE1B9
:100FB00090E09093D1018093D0019091C00196313F
:100FC00008F047C021E030E03093CB012093CA0104
:100FD0002DE130E03093CD012093CC012DE030E0C5
:100FE0003093CF012093CE012091680084E09830A7
:100FF00048F031E09E3008F430E081E001C0880F15
:101000003A95EAF7822B809368002DE630E098301D
:1010100050F02BE630E09E3030F02CE630E0963198
:1010200010F030E020E03093C8012093C701292F51
:1010300030E0983008F021C281E001C0880F9A9515
:10104000EAF78093C9018091D0019091D101019775
:10105000F1F78091CE019091CF01892B49F1E09178
:10106000B201F091B30121E0E43BF20709F13097BE
:1010700039F0A389B4899C918589809589238C93C3
:101080008091D2018E7F8093D2011092B101109293
:10109000B00184EB91E09093B3018093B201E091B1
:1010A000C701F091C80180819091C901892B80838B
:1010B00014EBE12E11E0F12ECE010A960E94E80415
:1010C000F0924103E09240036DE271E0CE01479659
:1010D0000E94EA036DE271E0CE0141960E94EA03AC
:1010E000AE01495E5F4FBE016F5E7F4FCE0101963C
:1010F0000E94EC04BE016F5F7F4FCE010A960E94F2
:1011000098028F81888BCE0101960E949002CE01B9
:1011100041960E949002CE0147960E949002188943
:10112000BE01665F7F4FCE0101960E94E103612FF1
:10113000CE0101960E949F00CE0101960E9490026E
:1011400064E0CE0101960E94FB036CE371E0CE01E6
:1011500001960E94D102182FCE0101960E949002A2
:10116000CE010A960E949002112309F4A5CFCE0168
:101170000A960E94E804188E1F8A1A8E198E1C8EF9
:101180001B8E4AE0BE016F5F7F4F8EE190E00E94B0
:10119000020DBE016F5F7F4FCE0147960E9468032C
:1011A00069E471E0CE0141960E94EA03AE01495E16
:1011B0005F4FBE016F5E7F4FCE0101960E94EC042F
:1011C000BE016F5F7F4FCE010A960E9498028F8109
:1011D000888BCE0101960E949002CE0141960E941A
:1011E0009002CE0147960E9490021889BE01665F68
:1011F0007F4FCE0101960E94E103612FCE0101963F
:101200000E949F00CE0101960E94900264E0CE01F0
:1012100001960E94FB03CE0101960E949002CE012E
:101220000A960E949002CE010A960E94E80461E0AC
:1012300070E0CE0147960E9472036DE471E0CE012A
:1012400041960E94EA03AE01495E5F4FBE016F5EA8
:101250007F4FCE0101960E94EC04BE016F5F7F4F6D
:10126000CE010A960E9498028F81888BCE0101964A
:101270000E949002CE0141960E949002CE014796B4
:101280000E94900281E090E0909343038093420398
:101290001889BE01665F7F4FCE0101960E94E1036F
:1012A000612FCE0101960E949F00CE0101960E94FF
:1012B000900210924A0364E0CE0101960E94FB0363
:1012C0006CE371E0CE0101960E94D102182FCE018D
:1012D00001960E949002112331F06CED75E080E0E0
:1012E00090E00E949A01CE010A960E949002CE01DF
:1012F0000A960E94E80466E571E0CE0147960E94D6
:10130000EA0369E571E0CE0141960E94EA03AE016D
:10131000495E5F4FBE016F5E7F4FCE0101960E9416
:10132000EC04BE016F5F7F4FCE010A960E949802C7
:101330008F81888BCE0101960E949002CE0141964A
:101340000E949002CE0147960E94900280914A032B
:101350008130E9F081E080934A031889BE01665F1D
:101360007F4FCE0101960E94E103612FCE010196CD
:101370000E949F00CE0101960E94900264E0CE017F
:1013800001960E94FB03CE0101960E949002CE01BD
:101390000A960E949002B8E8EB2EB2E0FB2E04ED14
:1013A00011E00E94E70C8170D8018D938D01EA163F
:1013B000FB06B9F7E4EB8E2E912CF6E02F2E312CA4
:1013C00044244A94A3E05A2E612C712C64EBC62E5F
:1013D00070E2D72EE8E8F2E02C2D11922A95E9F779
:1013E000E8E8F2E004ED11E030E020E0D8014D91B2
:1013F0008D01C9018D549F4FB4010E94DA0DDC01AB
:10140000AC52BE4F8C9190E0880F991F480F592F16
:10141000511D440F2F5F3F4FC901B4010E94DA0DE7
:10142000DC01AC52BE4FAC914A0FA42FB0E0A45ED9
:10143000BE4F8C918193243B3105C1F684EBE8E8E3
:10144000F2E0A4EDB1E001900D928A95E1F7809170
:1014500042039091430300E00197E1F40E94B60536
:10146000E4EDF1E000E099279F01245D3140281769
:10147000390784F42191020FF7CF9E3040F42850B1
:10148000310981E001C0880F2A95EAF7DACD2E50A4
:101490003109F7CF85B18D2585B982E00E946401BD
:1014A000009729F481E090E00E943D0560C001971B
:1014B0008F3F914008F0A3C181E090E00E943D057C
:1014C0008091420390914303019709F050C0CE01EF
:1014D0000A960E94E8046EE571E0CE0141960E94F2
:1014E000EA0369E571E0CE0147960E94EA03AE0186
:1014F0004F5E5F4FBE01695E7F4FCE0101960E9435
:10150000EC04BE016F5F7F4FCE010A960E949802E5
:101510008F81888BCE0101960E949002CE01479662
:101520000E949002CE0141960E9490021889BE014D
:10153000665F7F4FCE0101960E94E103612FCE01CD
:1015400001960E949F00CE0101960E949002E1E068
:10155000E0934A0364E0CE0101960E94FB03CE01B2
:1015600001960E949002CE010A960E9490028091FC
:10157000D301882309F489C083E00E94640118160E
:1015800019060CF082C080914203909143030197A9
:1015900009F038C1CE010A960E94E80470E060E0CC
:1015A000CE0101960E949E0363E671E0CE01419652
:1015B0000E94EA034D815E8169817A81CE01419664
:1015C0000E940E03811104C0CE0141960E947E024A
:1015D000BE016F5E7F4FCE014D960E94E103CE01AA
:1015E00041960E949002CE0101960E949002BE0197
:1015F000635E7F4FCE0141960E94E10365E671E094
:10160000CE0147960E94EA03AE014F5E5F4FBE01D6
:10161000695E7F4FCE0101960E94EC04BE016F5FB0
:101620007F4FCE010A960E9498028F81888BCE014F
:1016300001960E949002CE0147960E949002CE0130
:1016400041960E9490021889BE01665F7F4FCE01CD
:1016500001960E94E103612FCE0101960E949F0036
:10166000CE0101960E94900264E0CE0101960E9494
:10167000FB03CE0101960E949002CE014D960E947E
:101680009002CE010A960E949002809142039091AE
:101690004303019709F0B6C00E94B6057C0181E0C2
:1016A0000E9464015C018091420390914303019781
:1016B00009F066C010E0CE010A960E94E8040A9D77
:1016C000D0010B9DB00D1A9DB00D112497010E9401
:1016D000EE0D4FEF53E0049F9001059F300D149FD6
:1016E000300D1124032E000C440B550B0E942C0DC1
:1016F000B901CE0141960E949E0365E671E0CE01DC
:1017000047960E94EA03AE014F5E5F4FBE01695EDD
:101710007F4FCE0101960E94EC04BE016F5F7F4FA8
:10172000CE010A960E9498028F81888BCE01019685
:101730000E949002CE0147960E949002CE014196EF
:101740000E9490021889BE01665F7F4FCE0101960C
:101750000E94E103612FCE0101960E949F00CE01FD
:1017600001960E94900264E0CE0101960E94FB0364
:10177000CE0101960E949002CE010A960E9490022C
:1017800085B18D2585B9809142039091430310E086
:1017900000E0019719F40E94B6058C0180E00E94D8
:1017A0006401FC01C801B1010E94C60D54E6569FB8
:1017B0009001579F300D112450E040E02150310935
:1017C00041095109DF010E94560DA30192010E94B7
:1017D0002C0DCA01B9016F5F7F4F8F4F9F4F0E9441
:1017E0009A018091D30191E089278093D301A0E0F1
:1017F000B0E0AB2B09F4EECD0E940000E7CD84E011
:1018000090E052CEF12CE12C4ACF1092B701109209
:10181000B60188EE93E0A0E0B0E08093B801909329
:10182000B901A093BA01B093BB018EE091E090930F
:10183000B5018093B4011092CB011092CA011092AD
:10184000CD011092CC011092CF011092CE011092D6
:10185000D1011092D0016091D2016E7F6D7F6093B3
:10186000D2016695617081E0682783E00E942E07AF
:1018700061E083E00E943301EDE9F0E0E491E09360
:10188000C401E9E8F0E0E491F0E0EE0FFF1FE45856
:10189000FF4F859194919093C6018093C50160E0BC
:1018A00082E00E9433018091D20181FD04C061E099
:1018B00082E00E942E0782E08093C001ECE9F0E014
:1018C000E491E093C101E8E8F0E0E491F0E0EE0F8C
:1018D000FF1FE859FF4F859194919093C301809326
:1018E000C201109241031092400360E471E084E46D
:1018F00093E00C94EA0384E493E00E9490028EE06B
:1019000091E09093B5018093B4018091B2019091E0
:10191000B301845B914071F4E091C701F091C8017B
:1019200090818091C9018095892380831092B301B1
:101930001092B20108958F929F92AF92BF92CF9270
:10194000DF92EF92FF92CF93DF93EC016881798170
:101950008A819B81611571058105910521F464E2FD
:1019600079ED8BE597E02DE133EF41E050E00E9407
:101970002C0D49015A019B01AC01A7EAB1E40E9478
:101980004B0D6B017C01ACEEB4EFA50194010E94FC
:10199000590DDC01CB018C0D9D1DAE1DBF1DB7FF88
:1019A00003C00197A109B04888839983AA83BB83A8
:1019B0009F77DF91CF91FF90EF90DF90CF90BF9016
:1019C000AF909F908F9008950E949B0C089580E0A7
:1019D00091E00E949B0C0895B0E0A0E0809300018C
:1019E00090930101A0930201B09303010895BB27D6
:1019F0004A3031F4992322F4BDE2909581959F4FAE
:101A00000C94030DBB27FB015527AA27880F991FAC
:101A1000AA1FA41710F0A41B83955051B9F7A05D1D
:101A2000AA3308F0A95DA193009779F7B111B1939A
:101A30001192CB010C941C0DDC01FC01672F7191FC
:101A40007723E1F7329704C07C916D9370836291A4
:101A5000AE17BF07C8F30895052E97FB1EF4009438
:101A60000E94430D57FD07D00E94950D07FC03D03F
:101A70004EF40C94430D50954095309521953F4F71
:101A80004F4F5F4F089590958095709561957F4F6A
:101A90008F4F9F4F08950E94B70DA59F900DB49F43
:101AA000900DA49F800D911D11240895B7FF0C94F3
:101AB0004B0D0E944B0D821B930B08952F923F926A
:101AC0004F925F926F927F928F929F92AF92BF924E
:101AD000CF92DF92EF92FF920F931F93CF93DF93FA
:101AE000CDB7DEB7CA1BDB0B0FB6F894DEBF0FBE57
:101AF000CDBF09942A88398848885F846E847D84A4
:101B00008C849B84AA84B984C884DF80EE80FD80A5
:101B10000C811B81AA81B981CE0FD11D0FB6F8941B
:101B2000DEBF0FBECDBFED010895A1E21A2EAA1BA4
:101B3000BB1BFD010DC0AA1FBB1FEE1FFF1FA2177D
:101B4000B307E407F50720F0A21BB30BE40BF50B7A
:101B5000661F771F881F991F1A9469F76095709503
:101B6000809590959B01AC01BD01CF010895A29F86
:101B7000B001B39FC001A39F700D811D1124911D61
:101B8000B29F700D811D1124911D0895AA1BBB1BCE
:101B900051E107C0AA1FBB1FA617B70710F0A61B6D
:101BA000B70B881F991F5A95A9F780959095BC018E
:101BB000CD01089597FB072E16F4009407D077FD0A
:101BC00009D00E94C60D07FC05D03EF49095819582
:101BD0009F4F0895709561957F4F08950E94B70DAE
:101BE000B7FF0895821B930B08952A193B094C09EE
:101BF0005D096E097F09800B910B0895EE0FFF1FA1
:101C00000590F491E02D09940F931F93CF93DF93E8
:101C10008230910510F482E090E0E0914D03F09164
:101C20004E0330E020E0B0E0A0E0309799F42115B9
:101C3000310509F44AC0281B390B24303105D8F589
:101C40008A819B816115710589F1FB0193838283F0
:101C5000FE0111C04081518102811381481759074B
:101C6000E0F04817590799F4109761F012960C9319
:101C7000129713961C933296CF01DF91CF911F914B
:101C80000F91089500934D0310934E03F4CF211547
:101C9000310551F04217530738F0A901DB019A01D1
:101CA000BD01DF01F801C1CFEF01F9CF90934E03E1
:101CB00080934D03CDCFFE01E20FF31F81939193EB
:101CC0002250310939832883D7CF20914B0330919B
:101CD0004C03232B41F420910601309107013093EE
:101CE0004C0320934B0320910401309105012115F1
:101CF000310541F42DB73EB74091080150910901DB
:101D0000241B350BE0914B03F0914C03E217F307D2
:101D1000A0F42E1B3F0B2817390778F0AC014E5F5B
:101D20005F4F2417350748F04E0F5F1F50934C0349
:101D300040934B03819391939FCFF0E0E0E09CCFE1
:101D4000CF93DF930097E9F0FC0132971382128260
:101D5000A0914D03B0914E03ED0130E020E01097CB
:101D6000A1F420813181820F931F20914B03309188
:101D70004C032817390709F061C0F0934C03E09336
:101D80004B03DF91CF910895EA01CE17DF07E8F505
:101D90004A815B819E0141155105B1F7E901FB8341
:101DA000EA8349915991C40FD51FEC17FD0761F4DF
:101DB000808191810296840F951FE9019983888320
:101DC000828193819B838A83F0E0E0E012968D917B
:101DD0009C9113970097B9F52D913C911197CD01E6
:101DE0000296820F931F20914B0330914C032817CA
:101DF000390739F6309751F510924E0310924D0382
:101E0000B0934C03A0934B03BCCFD383C2834081D8
:101E10005181840F951FC817D90761F44E5F5F4F3A
:101E200088819981480F591F518340838A819B8102
:101E3000938382832115310509F0B0CFF0934E03CF
:101E4000E0934D039ECFFD01DC01C0CF13821282CF
:101E5000D7CFB0E0A0E0EFE2FFE00C94600D8C0182
:101E6000009751F4CB010E94040E8C01C801CDB73C
:101E7000DEB7E0E10C947C0DFC01E60FF71F9C013E
:101E800022503109E217F30708F49DC0D901CD9122
:101E9000DC911197C617D70798F0C530D10530F3FC
:101EA000CE0104978617970708F3C61BD70B229716
:101EB000C193D1936D937C93CF010E94A00ED6CF96
:101EC0005B01AC1ABD0A4C018C0E9D1EA0914D0306
:101ED000B0914E03512C412CF12CE12C109731F58F
:101EE00080914B0390914C038815990509F05CC0D3
:101EF0004616570608F058C08091040190910501DC
:101F0000009741F48DB79EB74091080150910901A7
:101F1000841B950BE817F90708F055C0F0934C03A4
:101F2000E0934B03F90171836083A0CF8D919C9165
:101F3000119712966C90129713967C901397A81590
:101F4000B90559F56C0142E0C40ED11CCA14DB047A
:101F500020F1AC014A195B09DA011296159780F05D
:101F60006282738251834083D9016D937C93E11423
:101F7000F10471F0D7011396FC93EE93129776CF8C
:101F800022968C0F9D1FF90191838083F301EFCF7F
:101F9000F0934E03E0934D0369CF4816590608F4B9
:101FA0002C017D01D3019ACFCB010E94040E7C014C
:101FB000009749F0AE01B8010E94E60FC8010E94E7
:101FC000A00E870153CF10E000E050CFFB01DC01F1
:101FD00002C001900D9241505040D8F70895FB0186
:101FE000DC018D91019080190110D9F3990B0895AE
:101FF000FB01DC0101900D920020E1F7089510E053
:10200000C2E6D0E004C0FE010E94FE0D2196C33658
:10201000D107C9F7F894FFCF0100000000004F037B
:10202000800000000000E60106017B02E50142029B
:102030005A02CD0100010101010000006572726FBA
:10204000720041540020002B003D00504C41594D7E
:102050004F4445004F4B0D0A00340051554552592D
:1020600000564F4C0046554E4354494F4E00505079
:1020700000504C4159004E455854002D0054494DD4
:02208000450019
:107E0000112484B714BE81FFF0D085E080938100F7
:107E100082E08093C00088E18093C10086E0809377
:107E2000C20080E18093C4008EE0C9D0259A86E02C
:107E300020E33CEF91E0309385002093840096BBD3
:107E4000B09BFECF1D9AA8958150A9F7CC24DD24C4
:107E500088248394B5E0AB2EA1E19A2EF3E0BF2EE7
:107E6000A2D0813461F49FD0082FAFD0023811F036
:107E7000013811F484E001C083E08DD089C08234E0
:107E800011F484E103C0853419F485E0A6D080C0E4
:107E9000853579F488D0E82EFF2485D0082F10E0AE
:107EA000102F00270E291F29000F111F8ED06801E7
:107EB0006FC0863521F484E090D080E0DECF843638
:107EC00009F040C070D06FD0082F6DD080E0C81688
:107ED00080E7D80618F4F601B7BEE895C0E0D1E017
:107EE00062D089930C17E1F7F0E0CF16F0E7DF06D8
:107EF00018F0F601B7BEE89568D007B600FCFDCFD4
:107F0000A601A0E0B1E02C9130E011968C91119780
:107F100090E0982F8827822B932B1296FA010C0160
:107F200087BEE89511244E5F5F4FF1E0A038BF0790
:107F300051F7F601A7BEE89507B600FCFDCF97BE46
:107F4000E89526C08437B1F42ED02DD0F82E2BD052
:107F50003CD0F601EF2C8F010F5F1F4F84911BD097
:107F6000EA94F801C1F70894C11CD11CFA94CF0C13
:107F7000D11C0EC0853739F428D08EE10CD085E9AC
:107F80000AD08FE07ACF813511F488E018D01DD067
:107F900080E101D065CF982F8091C00085FFFCCF94
:107FA0009093C60008958091C00087FFFCCF809118
:107FB000C00084FD01C0A8958091C6000895E0E648
:107FC000F0E098E1908380830895EDDF803219F02E
:107FD00088E0F5DFFFCF84E1DECF1F93182FE3DFCA
:107FE0001150E9F7F2DF1F91089580E0E8DFEE27F6
:047FF000FF270994CA
:027FFE00040479
:00000001FF
