:020000040000FA
:100000000C9463000C948B000C948B000C94B4063D
:100010000C94B4060C94B4060C948B000C948B00D6
:100020000C948B000C948B000C948B000C948B0024
:100030000C948B000C948B000C948B000C948B0014
:100040000C946A060C948B000C948B000C948B001F
:100050000C948B000C948B000C948B000C948B00F4
:100060000C948B000C948B000000000023002600F1
:10007000290000000000240027002A0000000000E2
:10008000250028002B0004040404040404040202D4
:100090000202020203030303030301020408102007
:1000A0004080010204081020010204081020000012
:1000B0000008000201000003040700000000000027
:1000C00000008C0B020C11241FBECFEFD8E0DEBF66
:1000D000CDBF11E0A0E0B1E0EEE1FEE102C005908D
:1000E0000D92AE35B107D9F721E0AEE5B1E001C020
:1000F0001D92AB3DB207E1F710E0C2E6D0E004C0CC
:100100002197FE010E94010DC136D107C9F70E9457
:1001100078070C94020F0C940000CF93DF9390E0CB
:10012000FC01E656FF4F24918A579F4FFC018491B2
:100130008823D1F090E0880F991FFC01EE58FF4F03
:10014000A591B491FC01E458FF4FC591D491611180
:100150000EC09FB7F8948C91E22FE0958E238C937C
:100160002881E223E8839FBFDF91CF9108958FB765
:10017000F894EC91E22BEC938FBFF6CF80648093E0
:100180007C0080917A00806480937A0080917A006C
:1001900086FDFCCF809178009091790008953FB75B
:1001A000F8948091C4019091C501A091C601B091CD
:1001B000C70126B5A89B05C02F3F19F00196A11DC8
:1001C000B11D3FBFBA2FA92F982F8827BC01CD01A1
:1001D000620F711D811D911D42E0660F771F881F00
:1001E000991F4A95D1F708958F929F92AF92BF922F
:1001F000CF92DF92EF92FF926B017C010E94CF00C1
:100200004B015C01C114D104E104F104B9F00E9476
:10021000CF00681979098A099B09683E73408105F6
:10022000910580F321E0C21AD108E108F10888EEB7
:10023000880E83E0981EA11CB11CE4CFFF90EF90C4
:10024000DF90CF90BF90AF909F908F900895FC016A
:10025000248135816217730720F480819181009792
:1002600029F410929E018EE991E00895860F971F60
:1002700008958F929F92AF92BF92CF92DF92EF92AA
:10028000FF920F931F93CF93DF93CDB7DEB7A8975D
:100290000FB6F894DEBF0FBECDBF5C01062F809174
:1002A000CC019091CD01DC01ED91FC910084F185B0
:1002B000E02D0995892BB9F4FE0131966F0110E00C
:1002C000F12CE12C4F010E151F05C9F0B701C50136
:1002D0000E942701FC018081D6018D936D01BFEF43
:1002E000EB1AFB0AF0CF8091CC019091CD01DC019B
:1002F000ED91FC910284F385E02D0995D0CF80919A
:10030000CC019091CD01DC01ED91FC910280F38153
:10031000E02DA801B4010995A8960FB6F894DEBFA8
:100320000FBECDBFDF91CF911F910F91FF90EF9046
:10033000DF90CF90BF90AF909F908F9008950895D9
:10034000AF92BF92CF92DF92EF92FF920F931F93E3
:10035000CF93DF936C017B018B01040F151FEB0121
:100360005E01AE18BF08C017D10759F06991D601D8
:10037000ED91FC910190F081E02DC6010995892B4A
:1003800079F7C501DF91CF911F910F91FF90EF9009
:10039000DF90CF90BF90AF9008952091A101309150
:1003A000A2012817390771F490919F018091A00153
:1003B000981741F0E0919F01F0E0E25AFE4F8081F2
:1003C00090E008958FEF9FEF08950895EF92FF92C8
:1003D0000F931F93CF93DF93DC015C96ED90FC901D
:1003E0005D97E114F10479F481E090E013969C9319
:1003F0008E93129790E080E0DF91CF911F910F9143
:10040000FF90EF9008955196ED91FC915297509680
:100410008C915097982F90950FB75E962C915E9780
:10042000122F127021FD6095F8942081112319F18B
:10043000282B2083E7012197F1F728E0462F50E091
:10044000308160FF1AC0382B3083E7012197F1F724
:10045000BA0175956795215089F7112381F0808144
:10046000892380830FBF5C968D919C910197F1F752
:1004700081E090E0C1CF2923DCCF3923E5CF908103
:10048000892BEFCF2091A1013091A20128173907C4
:1004900061F48091A00120919F0190E0805C9F4FCA
:1004A000821B91098F739927089590E080E0089549
:1004B0002091A1013091A20128173907B9F4909138
:1004C0009F018091A001981789F0E0919F01F0E0D1
:1004D000E25AFE4F808120919F0130E02F5F3F4F15
:1004E0002F73332720939F0190E008958FEF9FEFA4
:1004F000089590E080E00895CF93DF93EC01888128
:100500009981009711F00E94A30D198218821D8213
:100510001C821B821A82DF91CF910895FC01808199
:100520009181009711F00C94A30D08950F931F93E0
:10053000CF93DF938C01EB01FC01808191810097C7
:10054000E1F06881798161157105A9F042815381DB
:100550002C813D814217530770F00E94FB0E8C8165
:100560009D81F801958384831D821C82DF91CF9148
:100570001F910F9108950E94A30D88819981F80120
:10058000918380838A819B81938382838C819D81E7
:1005900095838483198218821B821A82E5CFFC011D
:1005A00024813581232B39F421E0FB0180818823CC
:1005B00049F020E007C0808191810E94F20E21E085
:1005C000892BB9F7822F08950F931F93CF93DF9351
:1005D000EC0188819981009759F02A813B81261787
:1005E000370730F081E0DF91CF911F910F9108958F
:1005F0008B016F5F7F4F0E942C0E009759F09983FB
:1006000088831B830A832C813D81232B59F7FC01AE
:100610001082E8CF80E0E7CFEF92FF920F931F9315
:10062000CF93DF936115710541F480E0DF91CF91A5
:100630001F910F91FF90EF90089541155105B1F072
:100640007B01EC010C811D81040F151FB8010E9474
:10065000E402882351F3288139818C819D81B7017F
:10066000820F931F0E94FB0E1D830C8381E0DECF5F
:10067000FC0101900020E9F73197AF01481B590BAD
:10068000BC0180ED91E00C940C03EF92FF920F936C
:100690001F93CF93DF93EC017B018A01BA010E9483
:1006A000E40281110BC0CE010E947C02CE01DF91D9
:1006B000CF911F910F91FF90EF9008951D830C83B0
:1006C000B701888199810E94FB0EF0CFFB01019058
:1006D0000020E9F73197AF01461B570B0C944503F7
:1006E0000F931F93CF93DF93CDB7DEB762970FB60B
:1006F000F894DEBF0FBECDBF8C01CB01F801118293
:10070000108213821282158214824AE0BE016F5F4A
:100710007F4F0E94220CBE016F5F7F4FC8010E9475
:10072000660362960FB6F894DEBF0FBECDBFDF91B1
:10073000CF911F910F9108950F931F93CF93DF9344
:10074000CDB7DEB761970FB6F894DEBF0FBECDBF51
:100750008C01CB01F8011182108213821282158262
:1007600014824AE0BE016F5F7F4F0E942D0CBE01D4
:100770006F5F7F4FC8010E94660361960FB6F894C1
:10078000DEBF0FBECDBFDF91CF911F910F910895B6
:10079000CF93DF93EC01FB018617970749F0608147
:1007A00071816115710541F0448155810E944503B5
:1007B000CE01DF91CF9108950E947C02F9CFFC0118
:1007C0001182108213821282158214820C94C80343
:1007D000FC01118210821382128215821482FB01A5
:1007E00001900020E9F73197AF01461B570B0C949D
:1007F00045032F923F924F925F926F927F928F921A
:100800009F92AF92BF92CF92DF92EF92FF920F939F
:100810001F93CF93DF93CDB7DEB762970FB6F894EF
:10082000DEBF0FBECDBF4C01F62E64E371E08E013A
:100830000F5F1F4F6801C8010E94E8032F2D30E0B1
:100840003A8B298B2FB7F8948091C8019091C901F8
:10085000A091CA01B091CB012FBF8C019D0140E056
:1008600050E0BA0189871A87AB873C874D875E873E
:100870006F87788B29883A88712C612C26018091AA
:10088000CC019091CD01DC01ED91FC910084F185CA
:10089000E02D0995892BD9F08091CC019091CD0163
:1008A000DC01ED91FC910284F385E02D09958F83A5
:1008B000188641E050E0BE01695F7F4FC2010E948F
:1008C0000C03B1E02B1A3108EFEF6E1A7E0AB30168
:1008D00061507109C2010E942701DC018C918A30AC
:1008E00009F468C08FB7F8944091C8015091C901CC
:1008F0006091CA017091CB018FBF9A01AB0160E09A
:1009000070E080E090E0A984BA84CB84DC84ED843C
:10091000FE840F8518890E94F80C283E334041055B
:100920005105610571058105910521F11CF168E111
:1009300071E0C4010E94E803CE0101960E948E027C
:10094000C40162960FB6F894DEBF0FBECDBFDF9133
:10095000CF911F910F91FF90EF90DF90CF90BF90BC
:10096000AF909F908F907F906F905F904F903F904F
:100970002F9008952114310409F081CF69897A8973
:10098000CE0101960E942701DC011C9289819A8187
:10099000F401918380838B819C81938382838D81F9
:1009A0009E81958384831A8219821C821B821E82F7
:1009B0001D82C2CFB30162507109C2010E9427019A
:1009C000FC0180818D3009F08DCFD8CF64E371E0D8
:1009D0000C94E803EF92FF920F931F93CF93DF9352
:1009E000EC017B018A010E94E60464E371E080ED82
:1009F00091E00E9466038EE191E00E94380361E27B
:100A000071E0C7010E94CF0281110DC083E291E025
:100A10000E943803F701448155816081718180ED26
:100A200091E00E940C0361E271E0C8010E94CF02D4
:100A300081110DC085E291E00E943803F8014481E4
:100A400055816081718180ED91E00E940C0382E309
:100A500091E00E94380360ED71E0CE010E94C8036E
:100A60008091D4018E83CE01DF91CF911F910F91A0
:100A7000FF90EF9008950F931F93CF93DF93CDB71F
:100A8000DEB76A970FB6F894DEBF0FBECDBF2091D8
:100A9000CE013091CF0110E02130310509F058C06E
:100AA0008C01CE0108960E94E604B801CE010F9693
:100AB0000E94700367E271E0CE0145960E94E80350
:100AC000AE01415F5F4FBE016B5E7F4FCE0101966D
:100AD0000E94EA04BE016F5F7F4FCE0108960E941C
:100AE00096028F818E87CE0101960E948E02CE01E2
:100AF00045960E948E02CE010F960E948E021E85A0
:100B0000BE01685F7F4FCE0101960E94DF03612F17
:100B1000CE0101960E943901CE0101960E948E02FB
:100B200064E0CE0101960E94F90360E371E0CE011A
:100B300001960E94CF02082FCE0101960E948E02DC
:100B400011E0011101C010E0CE0108960E948E0252
:100B5000812F6A960FB6F894DEBF0FBECDBFDF912E
:100B6000CF911F910F910895CF92DF92EF92FF9254
:100B70000F931F93CF93DF93CDB7DEB76A970FB66E
:100B8000F894DEBF0FBECDBFCE0108960E94E604EA
:100B900065E371E0CE0145960E94E80367E371E0EA
:100BA000CE010F960E94E803AE014B5E5F4FBE017F
:100BB000615F7F4FCE0101960E94EA04BE016F5F24
:100BC0007F4FCE0108960E9496028F818E87CE01BC
:100BD00001960E948E02CE010F960E948E02CE01D7
:100BE00045960E948E021E85BE01685F7F4FCE0132
:100BF00001960E94DF03612FCE0101960E94390108
:100C0000CE0101960E948E0266E0CE010F960E94F0
:100C1000F903BE01615F7F4FCE0101960E94DF03A1
:100C2000F12C0F2D10E08D819E8108171907F8F027
:100C300010E000E0D12CC12C8AE0E82E0F1568F5F9
:100C4000B801CE0101960E942701EC9C9001ED9C19
:100C5000300D11246901F0E3CF1AD108FC01808125
:100C6000C80ED11C87FDDA940F5F1F4FE7CFB80184
:100C7000CE0101960E942701FC0180818D30C1F2D6
:100C8000B8016F5F7F4FCE0101960E942701FC01E2
:100C900080818A3069F2F394C4CFCE0101960E941C
:100CA0008E02CE010F960E948E02CE0108960E94FF
:100CB0008E02C60199276A960FB6F894DEBF0FBE62
:100CC000CDBFDF91CF911F910F91FF90EF90DF90FB
:100CD000CF9008951F920F920FB60F9211242F9369
:100CE0003F938F939F93AF93BF938091C80190914F
:100CF000C901A091CA01B091CB013091C30123E099
:100D0000230F2D3758F50196A11DB11D2093C30166
:100D10008093C8019093C901A093CA01B093CB01FD
:100D20008091C4019091C501A091C601B091C70105
:100D30000196A11DB11D8093C4019093C501A0939C
:100D4000C601B093C701BF91AF919F918F913F9121
:100D50002F910F900FBE0F901F90189526E8230F2C
:100D60000296A11DB11DD2CF1F920F920FB60F9206
:100D700011242F933F934F935F936F937F938F93A0
:100D80009F93AF93BF93EF93FF93E091A101F091F5
:100D9000A201309749F0A685B7858585968D91FF8C
:100DA00014C09C918923A1F4FF91EF91BF91AF9161
:100DB0009F918F917F916F915F914F913F912F9173
:100DC0000F900FBE0F901F9018959C91892361F78B
:100DD000A389B4899C918589809589238C93868980
:100DE00097890197F1F7608D718DA685B785558537
:100DF00038E020E0CB010197F1F7822F90E0959544
:100E00008795282F4C91452309F02068315091F7A0
:100E1000868D81FD20958091A00190E001968F73D1
:100E2000992730919F01381799F0A091A001B0E067
:100E3000A25ABE4F2C938093A001828D938D01976F
:100E4000F1F7A389B4898C919589892B8C93ACCFC8
:100E5000868D8160868FF1CF90E0FC01E255FF4FD7
:100E60002491FC01E656FF4F3491FC01EA57FF4FF5
:100E7000E491EE23C9F0222339F0233001F1A8F4E4
:100E8000213019F1223029F1F0E0EE0FFF1FE45874
:100E9000FF4FA591B4918FB7F894EC91611126C0E2
:100EA00030953E233C938FBF08952730A9F028301A
:100EB000C9F0243049F7809180008F7D03C0809174
:100EC00080008F7780938000DFCF84B58F7784BDDB
:100ED000DBCF84B58F7DFBCF8091B0008F7780937F
:100EE000B000D2CF8091B0008F7DF9CF3E2BDACF0A
:100EF000CF93DF93CDB7DEB7A2970FB6F894DEBFDE
:100F00000FBECDBF789484B5826084BD84B5816006
:100F100084BD85B5826085BD85B5816085BD8091C4
:100F20006E00816080936E0010928100809181003C
:100F30008260809381008091810081608093810034
:100F4000809180008160809380008091B1008460F6
:100F50008093B1008091B00081608093B000809157
:100F60007A00846080937A0080917A008260809316
:100F70007A0080917A00816080937A0080917A0073
:100F8000806880937A001092C10061E08DE00E9439
:100F90008D001092BE011092BD011092BC01109202
:100FA000BB011092BA011092B9018FE190E09093C9
:100FB000C0018093BF019091AF01963108F047C006
:100FC00021E030E03093BA012093B9012DE130E007
:100FD0003093BC012093BB012DE030E03093BE0183
:100FE0002093BD012091680084E0983048F031E002
:100FF0009E3008F430E081E001C0880F3A95EAF7AE
:10100000822B809368002DE630E0983050F02BE67C
:1010100030E09E3030F02CE630E0963110F030E0D9
:1010200020E03093B7012093B601292F30E09830AB
:1010300008F0D0C181E001C0880F9A95EAF780934B
:10104000B8018091BF019091C0010197F1F78091A3
:10105000BD019091BE01892B49F1E091A101F09170
:10106000A20121E0E33AF20709F1309739F0A389B0
:10107000B4899C918589809589238C938091C10145
:101080008E7F8093C1011092A00110929F0183EA8C
:1010900091E09093A2018093A101E091B601F091BB
:1010A000B70180819091B801892B808343EAE42EB7
:1010B00041E0F42ECE010A960E94E604F092CD01A2
:1010C000E092CC0161E271E0CE0147960E94E80314
:1010D00061E271E0CE0141960E94E803AE01495EF3
:1010E0005F4FBE016F5E7F4FCE0101960E94EA0402
:1010F000BE016F5F7F4FCE010A960E9496028F81DC
:10110000888BCE0101960E948E02CE0141960E94EC
:101110008E02CE0147960E948E021889BE01665F3C
:101120007F4FCE0101960E94DF03612FCE01019611
:101130000E943901CE0101960E948E0264E0CE0128
:1011400001960E94F90360E371E0CE0101960E94CE
:10115000CF02182FCE0101960E948E02CE010A9670
:101160000E948E02112309F4A5CFCE010A960E9497
:10117000E604188E1F8A1A8E198E1C8E1B8E4AE06A
:10118000BE016F5F7F4F8EE190E00E942D0CBE018B
:101190006F5F7F4FCE0147960E9466036DE371E05B
:1011A000CE0141960E94E803AE01495E5F4FBE0149
:1011B0006F5E7F4FCE0101960E94EA04BE016F5F11
:1011C0007F4FCE010A960E9496028F81888BCE01B6
:1011D00001960E948E02CE0141960E948E02CE019F
:1011E00047960E948E021889BE01665F7F4FCE012E
:1011F00001960E94DF03612FCE0101960E94390102
:10120000CE0101960E948E0264E0CE0101960E94FA
:10121000F903CE0101960E948E02CE010A960E9429
:101220008E02CE010A960E94E60461E070E0CE01D3
:1012300047960E94700361E471E0CE0141960E94DE
:10124000E803AE01495E5F4FBE016F5E7F4FCE0186
:1012500001960E94EA04BE016F5F7F4FCE010A969D
:101260000E9496028F81888BCE0101960E948E0289
:10127000CE0141960E948E02CE0147960E948E02B8
:1012800081E090E09093CF018093CE011889BE0158
:10129000665F7F4FCE0101960E94DF03612FCE0172
:1012A00001960E943901CE0101960E948E02109291
:1012B000D60164E0CE0101960E94F90360E371E07B
:1012C000CE0101960E94CF02182FCE0101960E94F6
:1012D0008E02112331F06CED75E080E090E00E9409
:1012E000F400CE010A960E948E02CE010A960E9458
:1012F000E6046AE471E0CE0147960E94E8036DE4DB
:1013000071E0CE0141960E94E803AE01495E5F4F55
:10131000BE016F5E7F4FCE0101960E94EA04BE01BE
:101320006F5F7F4FCE010A960E9496028F81888B55
:10133000CE0101960E948E02CE0141960E948E023D
:10134000CE0147960E948E028091D6018130E9F04D
:1013500081E08093D6011889BE01665F7F4FCE0180
:1013600001960E94DF03612FCE0101960E94390190
:10137000CE0101960E948E0264E0CE0101960E9489
:10138000F903CE0101960E948E02CE010A960E94B8
:101390008E0280E2F82E3324339444244A9493E05E
:1013A000592E612C712C28EEC22E23E0D22E30E073
:1013B000A32E30E0B32EEE24E39485B18F2585B9BA
:1013C00082E00E94BE00009791F481E090E00E94CC
:1013D0003B056CC09E3040F42850310981E001C0CB
:1013E000880F2A95EAF72BCE2E503109F7CF0197B7
:1013F0008F3F914008F08AC181E090E00E943B0558
:101400008091CE019091CF01019709F04FC0CE019C
:101410000A960E94E60462E571E0CE0141960E94C0
:10142000E8036DE471E0CE0147960E94E803AE0147
:101430004F5E5F4FBE01695E7F4FCE0101960E94F5
:10144000EA04BE016F5F7F4FCE010A960E949602AA
:101450008F81888BCE0101960E948E02CE01479625
:101460000E948E02CE0141960E948E021889BE0112
:10147000665F7F4FCE0101960E94DF03612FCE0190
:1014800001960E943901CE0101960E948E02E092DF
:10149000D60164E0CE0101960E94F903CE010196C7
:1014A0000E948E02CE010A960E948E028091C20195
:1014B000882309F489C083E00E94BE00181619062B
:1014C0000CF082C08091CE019091CF01019709F07C
:1014D00020C1CE010A960E94E60470E060E0CE01D1
:1014E00001960E949C0367E571E0CE0141960E943F
:1014F000E8034D815E8169817A81CE0141960E9427
:101500000C03811104C0CE0141960E947C02BE01F1
:101510006F5E7F4FCE014D960E94DF03CE01419654
:101520000E948E02CE0101960E948E02BE01635E71
:101530007F4FCE0141960E94DF0369E571E0CE0145
:1015400047960E94E803AE014F5E5F4FBE01695EA1
:101550007F4FCE0101960E94EA04BE016F5F7F4F6C
:10156000CE010A960E9496028F81888BCE01019649
:101570000E948E02CE0147960E948E02CE014196B5
:101580000E948E021889BE01665F7F4FCE010196D0
:101590000E94DF03612FCE0101960E943901CE0126
:1015A00001960E948E0264E0CE0101960E94F9032A
:1015B000CE0101960E948E02CE014D960E948E02AF
:1015C000CE010A960E948E028091CE019091CF01A9
:1015D000019709F09EC00E94B4058C0181E00E9431
:1015E000BE004C018091CE019091CF01019709F08E
:1015F00054C0CE010A960E94E6049801D4010E94CC
:10160000F10CA30192010E94570CB901CE01419641
:101610000E949C0369E571E0CE0147960E94E803B1
:10162000AE014F5E5F4FBE01695E7F4FCE010196F6
:101630000E94EA04BE016F5F7F4FCE010A960E94AE
:1016400096028F81888BCE0101960E948E02CE0178
:1016500047960E948E02CE0141960E948E02188902
:10166000BE01665F7F4FCE0101960E94DF03612FAE
:10167000CE0101960E943901CE0101960E948E0290
:1016800064E0CE0101960E94F903CE0101960E940A
:101690008E02CE010A960E948E0285B18F2585B9F1
:1016A0008091CE019091CF0110E000E0019719F4F4
:1016B0000E94B4058C0180E00E94BE000C9D900148
:1016C0000D9D300D1C9D300D112450E040E0215047
:1016D000310941095109DC010E94810CA3019201E9
:1016E0000E94570CCA01B9016F5F7F4F8F4F9F4F08
:1016F0000E94F4008091C20183258093C201A1144D
:10170000B10409F45ACE0E94000057CE84E090E064
:101710005ECE10E000E062CF1092A6011092A5010B
:1017200088EE93E0A0E0B0E08093A7019093A80139
:10173000A093A901B093AA018AE091E09093A4013B
:101740008093A3011092BA011092B9011092BC01CA
:101750001092BB011092BE011092BD011092C00107
:101760001092BF016091C1016E7F6D7F6093C101D6
:101770006695617081E0682783E00E942C0761E034
:1017800083E00E948D00EDE9F0E0E491E093B30185
:10179000E9E8F0E0E491F0E0EE0FFF1FE458FF4FBE
:1017A000859194919093B5018093B40160E082E0BB
:1017B0000E948D008091C10181FD04C061E082E042
:1017C0000E942C0782E08093AF01ECE9F0E0E49105
:1017D000E093B001E8E8F0E0E491F0E0EE0FFF1FE5
:1017E000E859FF4F859194919093B2018093B10194
:1017F0001092CD011092CC0164E371E080ED91E094
:101800000C94E80380ED91E00E948E028AE091E062
:101810009093A4018093A3018091A1019091A201D2
:10182000835A914071F4E091B601F091B701908133
:101830008091B8018095892380831092A201109233
:10184000A1010895BB274A3031F4992322F4BDE267
:10185000909581959F4F0C942E0CBB27FB0155272B
:10186000AA27880F991FAA1FA41710F0A41B8395FD
:101870005051B9F7A05DAA3308F0A95DA193009774
:1018800079F7B111B1931192CB010C94470CDC01A3
:10189000FC01672F71917723E1F7329704C07C91A7
:1018A0006D9370836291AE17BF07C8F30895052E3C
:1018B00097FB1EF400940E946E0C57FD07D00E9407
:1018C000C00C07FC03D04EF40C946E0C5095409560
:1018D000309521953F4F4F4F5F4F089590958095DC
:1018E000709561957F4F8F4F9F4F08950E94E20C36
:1018F000A59F900DB49F900DA49F800D911D112464
:101900000895B7FF0C94760C0E94760C821B930B03
:1019100008952F923F924F925F926F927F928F9293
:101920009F92AF92BF92CF92DF92EF92FF920F936E
:101930001F93CF93DF93CDB7DEB7CA1BDB0B0FB678
:10194000F894DEBF0FBECDBF09942A883988488835
:101950005F846E847D848C849B84AA84B984C884CB
:10196000DF80EE80FD800C811B81AA81B981CE0FC2
:10197000D11D0FB6F894DEBF0FBECDBFED010895A7
:10198000A1E21A2EAA1BBB1BFD010DC0AA1FBB1F83
:10199000EE1FFF1FA217B307E407F50720F0A21BF5
:1019A000B30BE40BF50B661F771F881F991F1A9462
:1019B00069F760957095809590959B01AC01BD018C
:1019C000CF010895A29FB001B39FC001A39F700DE6
:1019D000811D1124911DB29F700D811D1124911D37
:1019E00008950E94E20CB7FF0895821B930B08959F
:1019F0002A193B094C095D096E097F09800B910B7F
:101A00000895EE0FFF1F0590F491E02D09940F93B8
:101A10001F93CF93DF938230910510F482E090E022
:101A2000E091D901F091DA0130E020E0B0E0A0E0EF
:101A3000309799F42115310509F44AC0281B390B58
:101A400024303105D8F58A819B816115710589F1B2
:101A5000FB0193838283FE0111C040815181028189
:101A6000138148175907E0F04817590799F4109760
:101A700061F012960C93129713961C933296CF0135
:101A8000DF91CF911F910F9108950093D901109389
:101A9000DA01F4CF2115310551F04217530738F020
:101AA000A901DB019A01BD01DF01F801C1CFEF01FE
:101AB000F9CF9093DA018093D901CDCFFE01E20FE7
:101AC000F31F819391932250310939832883D7CF13
:101AD0002091D7013091D801232B41F420910201AC
:101AE000309103013093D8012093D7012091000158
:101AF000309101012115310541F42DB73EB74091D8
:101B0000040150910501241B350BE091D701F091A0
:101B1000D801E217F307A0F42E1B3F0B2817390753
:101B200078F0AC014E5F5F4F2417350748F04E0F39
:101B30005F1F5093D8014093D701819391939FCF1A
:101B4000F0E0E0E09CCFCF93DF930097E9F0FC0159
:101B5000329713821282A091D901B091DA01ED017E
:101B600030E020E01097A1F420813181820F931F93
:101B70002091D7013091D8012817390709F061C0A9
:101B8000F093D801E093D701DF91CF910895EA0156
:101B9000CE17DF07E8F54A815B819E0141155105AB
:101BA000B1F7E901FB83EA8349915991C40FD51F2D
:101BB000EC17FD0761F4808191810296840F951FD7
:101BC000E90199838883828193819B838A83F0E0F2
:101BD000E0E012968D919C9113970097B9F52D91A5
:101BE0003C911197CD010296820F931F2091D7014E
:101BF0003091D8012817390739F6309751F51092EE
:101C0000DA011092D901B093D801A093D701BCCFCB
:101C1000D383C28340815181840F951FC817D90790
:101C200061F44E5F5F4F88819981480F591F51833E
:101C300040838A819B81938382832115310509F03A
:101C4000B0CFF093DA01E093D9019ECFFD01DC0122
:101C5000C0CF13821282D7CFB0E0A0E0E2E3FEE073
:101C60000C948B0C8C01009751F4CB010E94070D52
:101C70008C01C801CDB7DEB7E0E10C94A70CFC01E4
:101C8000E60FF71F9C0122503109E217F30708F411
:101C90009DC0D901CD91DC911197C617D70798F057
:101CA000C530D10530F3CE0104978617970708F3A6
:101CB000C61BD70B2297C193D1936D937C93CF0111
:101CC0000E94A30DD6CF5B01AC1ABD0A4C018C0E4D
:101CD0009D1EA091D901B091DA01512C412CF12C1B
:101CE000E12C109731F58091D7019091D80188159A
:101CF000990509F05CC04616570608F058C0809157
:101D0000000190910101009741F48DB79EB7409179
:101D1000040150910501841B950BE817F90708F0A1
:101D200055C0F093D801E093D701F9017183608326
:101D3000A0CF8D919C91119712966C90129713964B
:101D40007C901397A815B90559F56C0142E0C40EB3
:101D5000D11CCA14DB0420F1AC014A195B09DA0179
:101D60001296159780F06282738251834083D90165
:101D70006D937C93E114F10471F0D7011396FC93F9
:101D8000EE93129776CF22968C0F9D1FF9019183C7
:101D90008083F301EFCFF093DA01E093D90169CFAB
:101DA0004816590608F42C017D01D3019ACFCB01C6
:101DB0000E94070D7C01009749F0AE01B8010E9416
:101DC000E90EC8010E94A30D870153CF10E000E087
:101DD00050CFFB01DC0102C001900D9241505040F8
:101DE000D8F70895FB01DC018D9101908019011055
:101DF000D9F3990B0895FB01DC0101900D920020AD
:101E0000E1F7089510E0C2E6D0E004C0FE010E94B0
:101E1000010D2196C336D107C9F7F894FFCF000012
:101E2000DB01800000000000E601A0017902E5016D
:101E300042025802CD016572726F72004154002057
:101E4000002B003D00504C41594D4F4445004F4B35
:101E50000D0A003400515545525900564F4C00466A
:101E6000554E4354494F4E00505000504C4159007C
:0C1E70004E455854002D0054494D4500CB
:107E0000112484B714BE81FFF0D085E080938100F7
:107E100082E08093C00088E18093C10086E0809377
:107E2000C20080E18093C4008EE0C9D0259A86E02C
:107E300020E33CEF91E0309385002093840096BBD3
:107E4000B09BFECF1D9AA8958150A9F7CC24DD24C4
:107E500088248394B5E0AB2EA1E19A2EF3E0BF2EE7
:107E6000A2D0813461F49FD0082FAFD0023811F036
:107E7000013811F484E001C083E08DD089C08234E0
:107E800011F484E103C0853419F485E0A6D080C0E4
:107E9000853579F488D0E82EFF2485D0082F10E0AE
:107EA000102F00270E291F29000F111F8ED06801E7
:107EB0006FC0863521F484E090D080E0DECF843638
:107EC00009F040C070D06FD0082F6DD080E0C81688
:107ED00080E7D80618F4F601B7BEE895C0E0D1E017
:107EE00062D089930C17E1F7F0E0CF16F0E7DF06D8
:107EF00018F0F601B7BEE89568D007B600FCFDCFD4
:107F0000A601A0E0B1E02C9130E011968C91119780
:107F100090E0982F8827822B932B1296FA010C0160
:107F200087BEE89511244E5F5F4FF1E0A038BF0790
:107F300051F7F601A7BEE89507B600FCFDCF97BE46
:107F4000E89526C08437B1F42ED02DD0F82E2BD052
:107F50003CD0F601EF2C8F010F5F1F4F84911BD097
:107F6000EA94F801C1F70894C11CD11CFA94CF0C13
:107F7000D11C0EC0853739F428D08EE10CD085E9AC
:107F80000AD08FE07ACF813511F488E018D01DD067
:107F900080E101D065CF982F8091C00085FFFCCF94
:107FA0009093C60008958091C00087FFFCCF809118
:107FB000C00084FD01C0A8958091C6000895E0E648
:107FC000F0E098E1908380830895EDDF803219F02E
:107FD00088E0F5DFFFCF84E1DECF1F93182FE3DFCA
:107FE0001150E9F7F2DF1F91089580E0E8DFEE27F6
:047FF000FF270994CA
:027FFE00040479
:00000001FF
